{
  "_format": "hh-sol-artifact-1",
  "contractName": "Multicall3",
  "sourceName": "contracts/Multicall3.sol",
  "abi": [
    {
      "inputs": [
        {
          "components": [
            {
              "internalType": "address",
              "name": "target",
              "type": "address"
            },
            {
              "internalType": "bytes",
              "name": "callData",
              "type": "bytes"
            }
          ],
          "internalType": "struct Multicall3.Call[]",
          "name": "calls",
          "type": "tuple[]"
        }
      ],
      "name": "aggregate",
      "outputs": [
        {
          "internalType": "uint256",
          "name": "blockNumber",
          "type": "uint256"
        },
        {
          "internalType": "bytes[]",
          "name": "returnData",
          "type": "bytes[]"
        }
      ],
      "stateMutability": "payable",
      "type": "function"
    },
    {
      "inputs": [
        {
          "components": [
            {
              "internalType": "address",
              "name": "target",
              "type": "address"
            },
            {
              "internalType": "bool",
              "name": "allowFailure",
              "type": "bool"
            },
            {
              "internalType": "bytes",
              "name": "callData",
              "type": "bytes"
            }
          ],
          "internalType": "struct Multicall3.Call3[]",
          "name": "calls",
          "type": "tuple[]"
        }
      ],
      "name": "aggregate3",
      "outputs": [
        {
          "components": [
            {
              "internalType": "bool",
              "name": "success",
              "type": "bool"
            },
            {
              "internalType": "bytes",
              "name": "returnData",
              "type": "bytes"
            }
          ],
          "internalType": "struct Multicall3.Result[]",
          "name": "returnData",
          "type": "tuple[]"
        }
      ],
      "stateMutability": "payable",
      "type": "function"
    },
    {
      "inputs": [
        {
          "components": [
            {
              "internalType": "address",
              "name": "target",
              "type": "address"
            },
            {
              "internalType": "bool",
              "name": "allowFailure",
              "type": "bool"
            },
            {
              "internalType": "bytes",
              "name": "callData",
              "type": "bytes"
            }
          ],
          "internalType": "struct Multicall3.Call3[]",
          "name": "calls",
          "type": "tuple[]"
        }
      ],
      "name": "aggregate3Static",
      "outputs": [
        {
          "components": [
            {
              "internalType": "bool",
              "name": "success",
              "type": "bool"
            },
            {
              "internalType": "bytes",
              "name": "returnData",
              "type": "bytes"
            }
          ],
          "internalType": "struct Multicall3.Result[]",
          "name": "returnData",
          "type": "tuple[]"
        }
      ],
      "stateMutability": "view",
      "type": "function"
    },
    {
      "inputs": [
        {
          "components": [
            {
              "internalType": "address",
              "name": "target",
              "type": "address"
            },
            {
              "internalType": "bool",
              "name": "allowFailure",
              "type": "bool"
            },
            {
              "internalType": "uint256",
              "name": "value",
              "type": "uint256"
            },
            {
              "internalType": "bytes",
              "name": "callData",
              "type": "bytes"
            }
          ],
          "internalType": "struct Multicall3.Call3Value[]",
          "name": "calls",
          "type": "tuple[]"
        }
      ],
      "name": "aggregate3Value",
      "outputs": [
        {
          "components": [
            {
              "internalType": "bool",
              "name": "success",
              "type": "bool"
            },
            {
              "internalType": "bytes",
              "name": "returnData",
              "type": "bytes"
            }
          ],
          "internalType": "struct Multicall3.Result[]",
          "name": "returnData",
          "type": "tuple[]"
        }
      ],
      "stateMutability": "payable",
      "type": "function"
    },
    {
      "inputs": [
        {
          "components": [
            {
              "internalType": "address",
              "name": "target",
              "type": "address"
            },
            {
              "internalType": "bytes",
              "name": "callData",
              "type": "bytes"
            }
          ],
          "internalType": "struct Multicall3.Call[]",
          "name": "calls",
          "type": "tuple[]"
        }
      ],
      "name": "aggregateStatic",
      "outputs": [
        {
          "internalType": "uint256",
          "name": "blockNumber",
          "type": "uint256"
        },
        {
          "internalType": "bytes[]",
          "name": "returnData",
          "type": "bytes[]"
        }
      ],
      "stateMutability": "view",
      "type": "function"
    },
    {
      "inputs": [
        {
          "components": [
            {
              "internalType": "address",
              "name": "target",
              "type": "address"
            },
            {
              "internalType": "bytes",
              "name": "callData",
              "type": "bytes"
            }
          ],
          "internalType": "struct Multicall3.Call[]",
          "name": "calls",
          "type": "tuple[]"
        }
      ],
      "name": "blockAndAggregate",
      "outputs": [
        {
          "internalType": "uint256",
          "name": "blockNumber",
          "type": "uint256"
        },
        {
          "internalType": "bytes32",
          "name": "blockHash",
          "type": "bytes32"
        },
        {
          "components": [
            {
              "internalType": "bool",
              "name": "success",
              "type": "bool"
            },
            {
              "internalType": "bytes",
              "name": "returnData",
              "type": "bytes"
            }
          ],
          "internalType": "struct Multicall3.Result[]",
          "name": "returnData",
          "type": "tuple[]"
        }
      ],
      "stateMutability": "payable",
      "type": "function"
    },
    {
      "inputs": [],
      "name": "getBasefee",
      "outputs": [
        {
          "internalType": "uint256",
          "name": "basefee",
          "type": "uint256"
        }
      ],
      "stateMutability": "view",
      "type": "function"
    },
    {
      "inputs": [
        {
          "internalType": "uint256",
          "name": "blockNumber",
          "type": "uint256"
        }
      ],
      "name": "getBlockHash",
      "outputs": [
        {
          "internalType": "bytes32",
          "name": "blockHash",
          "type": "bytes32"
        }
      ],
      "stateMutability": "view",
      "type": "function"
    },
    {
      "inputs": [],
      "name": "getBlockNumber",
      "outputs": [
        {
          "internalType": "uint256",
          "name": "blockNumber",
          "type": "uint256"
        }
      ],
      "stateMutability": "view",
      "type": "function"
    },
    {
      "inputs": [],
      "name": "getChainId",
      "outputs": [
        {
          "internalType": "uint256",
          "name": "chainid",
          "type": "uint256"
        }
      ],
      "stateMutability": "view",
      "type": "function"
    },
    {
      "inputs": [],
      "name": "getCurrentBlockCoinbase",
      "outputs": [
        {
          "internalType": "address",
          "name": "coinbase",
          "type": "address"
        }
      ],
      "stateMutability": "view",
      "type": "function"
    },
    {
      "inputs": [],
      "name": "getCurrentBlockDifficulty",
      "outputs": [
        {
          "internalType": "uint256",
          "name": "difficulty",
          "type": "uint256"
        }
      ],
      "stateMutability": "view",
      "type": "function"
    },
    {
      "inputs": [],
      "name": "getCurrentBlockGasLimit",
      "outputs": [
        {
          "internalType": "uint256",
          "name": "gaslimit",
          "type": "uint256"
        }
      ],
      "stateMutability": "view",
      "type": "function"
    },
    {
      "inputs": [],
      "name": "getCurrentBlockTimestamp",
      "outputs": [
        {
          "internalType": "uint256",
          "name": "timestamp",
          "type": "uint256"
        }
      ],
      "stateMutability": "view",
      "type": "function"
    },
    {
      "inputs": [
        {
          "internalType": "address",
          "name": "addr",
          "type": "address"
        }
      ],
      "name": "getEthBalance",
      "outputs": [
        {
          "internalType": "uint256",
          "name": "balance",
          "type": "uint256"
        }
      ],
      "stateMutability": "view",
      "type": "function"
    },
    {
      "inputs": [],
      "name": "getLastBlockHash",
      "outputs": [
        {
          "internalType": "bytes32",
          "name": "blockHash",
          "type": "bytes32"
        }
      ],
      "stateMutability": "view",
      "type": "function"
    },
    {
      "inputs": [
        {
          "internalType": "bool",
          "name": "requireSuccess",
          "type": "bool"
        },
        {
          "components": [
            {
              "internalType": "address",
              "name": "target",
              "type": "address"
            },
            {
              "internalType": "bytes",
              "name": "callData",
              "type": "bytes"
            }
          ],
          "internalType": "struct Multicall3.Call[]",
          "name": "calls",
          "type": "tuple[]"
        }
      ],
      "name": "tryAggregate",
      "outputs": [
        {
          "components": [
            {
              "internalType": "bool",
              "name": "success",
              "type": "bool"
            },
            {
              "internalType": "bytes",
              "name": "returnData",
              "type": "bytes"
            }
          ],
          "internalType": "struct Multicall3.Result[]",
          "name": "returnData",
          "type": "tuple[]"
        }
      ],
      "stateMutability": "payable",
      "type": "function"
    },
    {
      "inputs": [
        {
          "internalType": "bool",
          "name": "requireSuccess",
          "type": "bool"
        },
        {
          "components": [
            {
              "internalType": "address",
              "name": "target",
              "type": "address"
            },
            {
              "internalType": "bytes",
              "name": "callData",
              "type": "bytes"
            }
          ],
          "internalType": "struct Multicall3.Call[]",
          "name": "calls",
          "type": "tuple[]"
        }
      ],
      "name": "tryBlockAndAggregate",
      "outputs": [
        {
          "internalType": "uint256",
          "name": "blockNumber",
          "type": "uint256"
        },
        {
          "internalType": "bytes32",
          "name": "blockHash",
          "type": "bytes32"
        },
        {
          "components": [
            {
              "internalType": "bool",
              "name": "success",
              "type": "bool"
            },
            {
              "internalType": "bytes",
              "name": "returnData",
              "type": "bytes"
            }
          ],
          "internalType": "struct Multicall3.Result[]",
          "name": "returnData",
          "type": "tuple[]"
        }
      ],
      "stateMutability": "payable",
      "type": "function"
    }
  ],
  "bytecode": "0x608060405234801561001057600080fd5b50611278806100206000396000f3fe6080604052600436106101295760003560e01c80634d2301cc116100a5578063a8b0574e11610074578063c3077fa911610059578063c3077fa9146102e2578063ca3a2ae9146102f5578063ee82ac5e1461031557600080fd5b8063a8b0574e146102b4578063bce38bd7146102cf57600080fd5b80634d2301cc1461024657806372425d9d1461027b57806382ad56cb1461028e57806386d516e8146102a157600080fd5b806327e86d6e116100fc578063399542e9116100e1578063399542e9146101fe5780633e64a6961461022057806342cbb15c1461023357600080fd5b806327e86d6e146101b55780633408e470146101eb57600080fd5b8063098dc7b81461012e5780630f28c97d14610165578063174dea7114610182578063252dba42146101a2575b600080fd5b34801561013a57600080fd5b5061014e610149366004610e41565b610334565b60405161015c929190610eee565b60405180910390f35b34801561017157600080fd5b50425b60405190815260200161015c565b610195610190366004610e41565b6104d8565b60405161015c9190610fde565b61014e6101b0366004610e41565b610708565b3480156101c157600080fd5b50437fffffffffffffffffffffffffffffffffffffffffffffffffffffffffffffffff0140610174565b3480156101f757600080fd5b5046610174565b61021161020c366004610ff8565b61089f565b60405161015c93929190611052565b34801561022c57600080fd5b5048610174565b34801561023f57600080fd5b5043610174565b34801561025257600080fd5b5061017461026136600461107a565b73ffffffffffffffffffffffffffffffffffffffff163190565b34801561028757600080fd5b5044610174565b61019561029c366004610e41565b6108ba565b3480156102ad57600080fd5b5045610174565b3480156102c057600080fd5b5060405141815260200161015c565b6101956102dd366004610ff8565b610a69565b6102116102f0366004610e41565b610c29565b34801561030157600080fd5b50610195610310366004610e41565b610c48565b34801561032157600080fd5b506101746103303660046110b0565b4090565b436060828067ffffffffffffffff811115610351576103516110c9565b60405190808252806020026020018201604052801561038457816020015b606081526020019060019003908161036f5790505b5091503660005b828110156104ce5760008787838181106103a7576103a76110f8565b90506020028101906103b99190611127565b92506103c8602084018461107a565b73ffffffffffffffffffffffffffffffffffffffff166103eb6020850185611165565b6040516103f99291906111ca565b600060405180830381855afa9150503d8060008114610434576040519150601f19603f3d011682016040523d82523d6000602084013e610439565b606091505b5086848151811061044c5761044c6110f8565b60209081029190910101529050806104c5576040517f08c379a000000000000000000000000000000000000000000000000000000000815260206004820152601760248201527f4d756c746963616c6c333a2063616c6c206661696c656400000000000000000060448201526064015b60405180910390fd5b5060010161038b565b5050509250929050565b60606000828067ffffffffffffffff8111156104f6576104f66110c9565b60405190808252806020026020018201604052801561053c57816020015b6040805180820190915260008152606060208201528152602001906001900390816105145790505b5092503660005b8281101561069557600085828151811061055f5761055f6110f8565b6020026020010151905087878381811061057b5761057b6110f8565b905060200281019061058d91906111da565b6040810135958601959093506105a6602085018561107a565b73ffffffffffffffffffffffffffffffffffffffff16816105ca6060870187611165565b6040516105d89291906111ca565b60006040518083038185875af1925050503d8060008114610615576040519150601f19603f3d011682016040523d82523d6000602084013e61061a565b606091505b50602080850191909152901515808452908501351761068b577f08c379a000000000000000000000000000000000000000000000000000000000600052602060045260176024527f4d756c746963616c6c333a2063616c6c206661696c656400000000000000000060445260846000fd5b5050600101610543565b508234146106ff576040517f08c379a000000000000000000000000000000000000000000000000000000000815260206004820152601a60248201527f4d756c746963616c6c333a2076616c7565206d69736d6174636800000000000060448201526064016104bc565b50505092915050565b436060828067ffffffffffffffff811115610725576107256110c9565b60405190808252806020026020018201604052801561075857816020015b60608152602001906001900390816107435790505b5091503660005b828110156104ce57600087878381811061077b5761077b6110f8565b905060200281019061078d9190611127565b925061079c602084018461107a565b73ffffffffffffffffffffffffffffffffffffffff166107bf6020850185611165565b6040516107cd9291906111ca565b6000604051808303816000865af19150503d806000811461080a576040519150601f19603f3d011682016040523d82523d6000602084013e61080f565b606091505b50868481518110610822576108226110f8565b6020908102919091010152905080610896576040517f08c379a000000000000000000000000000000000000000000000000000000000815260206004820152601760248201527f4d756c746963616c6c333a2063616c6c206661696c656400000000000000000060448201526064016104bc565b5060010161075f565b43804060606108af868686610a69565b905093509350939050565b6060818067ffffffffffffffff8111156108d6576108d66110c9565b60405190808252806020026020018201604052801561091c57816020015b6040805180820190915260008152606060208201528152602001906001900390816108f45790505b5091503660005b828110156106ff57600084828151811061093f5761093f6110f8565b6020026020010151905086868381811061095b5761095b6110f8565b905060200281019061096d919061120e565b925061097c602084018461107a565b73ffffffffffffffffffffffffffffffffffffffff1661099f6040850185611165565b6040516109ad9291906111ca565b6000604051808303816000865af19150503d80600081146109ea576040519150601f19603f3d011682016040523d82523d6000602084013e6109ef565b606091505b506020808401919091529015158083529084013517610a60577f08c379a000000000000000000000000000000000000000000000000000000000600052602060045260176024527f4d756c746963616c6c333a2063616c6c206661696c656400000000000000000060445260646000fd5b50600101610923565b6060818067ffffffffffffffff811115610a8557610a856110c9565b604051908082528060200260200182016040528015610acb57816020015b604080518082019091526000815260606020820152815260200190600190039081610aa35790505b5091503660005b82811015610c1f576000848281518110610aee57610aee6110f8565b60200260200101519050868683818110610b0a57610b0a6110f8565b9050602002810190610b1c9190611127565b9250610b2b602084018461107a565b73ffffffffffffffffffffffffffffffffffffffff16610b4e6020850185611165565b604051610b5c9291906111ca565b6000604051808303816000865af19150503d8060008114610b99576040519150601f19603f3d011682016040523d82523d6000602084013e610b9e565b606091505b506020830152151581528715610c16578051610c16576040517f08c379a000000000000000000000000000000000000000000000000000000000815260206004820152601760248201527f4d756c746963616c6c333a2063616c6c206661696c656400000000000000000060448201526064016104bc565b50600101610ad2565b5050509392505050565b6000806060610c3a6001868661089f565b919790965090945092505050565b6060818067ffffffffffffffff811115610c6457610c646110c9565b604051908082528060200260200182016040528015610caa57816020015b604080518082019091526000815260606020820152815260200190600190039081610c825790505b5091503660005b828110156106ff576000848281518110610ccd57610ccd6110f8565b60200260200101519050868683818110610ce957610ce96110f8565b9050602002810190610cfb919061120e565b9250610d0a602084018461107a565b73ffffffffffffffffffffffffffffffffffffffff16610d2d6040850185611165565b604051610d3b9291906111ca565b600060405180830381855afa9150503d8060008114610d76576040519150601f19603f3d011682016040523d82523d6000602084013e610d7b565b606091505b506020808401919091529015158083529084013517610dec577f08c379a000000000000000000000000000000000000000000000000000000000600052602060045260176024527f4d756c746963616c6c333a2063616c6c206661696c656400000000000000000060445260646000fd5b50600101610cb1565b60008083601f840112610e0757600080fd5b50813567ffffffffffffffff811115610e1f57600080fd5b6020830191508360208260051b8501011115610e3a57600080fd5b9250929050565b60008060208385031215610e5457600080fd5b823567ffffffffffffffff811115610e6b57600080fd5b610e7785828601610df5565b90969095509350505050565b6000815180845260005b81811015610ea957602081850181015186830182015201610e8d565b81811115610ebb576000602083870101525b50601f017fffffffffffffffffffffffffffffffffffffffffffffffffffffffffffffffe0169290920160200192915050565b600060408201848352602060408185015281855180845260608601915060608160051b870101935082870160005b82811015610f68577fffffffffffffffffffffffffffffffffffffffffffffffffffffffffffffffa0888703018452610f56868351610e83565b95509284019290840190600101610f1c565b509398975050505050505050565b6000815180845260208085019450848260051b860182860160005b85811015610fd157838303895281518051151584528501516040868501819052610fbd81860183610e83565b9a87019a9450505090840190600101610f91565b5090979650505050505050565b602081526000610ff16020830184610f76565b9392505050565b60008060006040848603121561100d57600080fd5b8335801515811461101d57600080fd5b9250602084013567ffffffffffffffff81111561103957600080fd5b61104586828701610df5565b9497909650939450505050565b8381528260208201526060604082015260006110716060830184610f76565b95945050505050565b60006020828403121561108c57600080fd5b813573ffffffffffffffffffffffffffffffffffffffff81168114610ff157600080fd5b6000602082840312156110c257600080fd5b5035919050565b7f4e487b7100000000000000000000000000000000000000000000000000000000600052604160045260246000fd5b7f4e487b7100000000000000000000000000000000000000000000000000000000600052603260045260246000fd5b600082357fffffffffffffffffffffffffffffffffffffffffffffffffffffffffffffffc183360301811261115b57600080fd5b9190910192915050565b60008083357fffffffffffffffffffffffffffffffffffffffffffffffffffffffffffffffe184360301811261119a57600080fd5b83018035915067ffffffffffffffff8211156111b557600080fd5b602001915036819003821315610e3a57600080fd5b8183823760009101908152919050565b600082357fffffffffffffffffffffffffffffffffffffffffffffffffffffffffffffff8183360301811261115b57600080fd5b600082357fffffffffffffffffffffffffffffffffffffffffffffffffffffffffffffffa183360301811261115b57600080fdfea2646970667358221220a372e8b1d9ec2a20a85f764869e390468357cd8f68f1bb35c099bc1cd1b80b8a64736f6c634300080c0033",
  "linkReferences": {},
  "deployedLinkReferences": {}
}