{"abi":[{"type":"constructor","inputs":[{"name":"universalProfile_","type":"address","internalType":"address"}],"stateMutability":"nonpayable"},{"type":"function","name":"VERSION","inputs":[],"outputs":[{"name":"","type":"string","internalType":"string"}],"stateMutability":"view"},{"type":"function","name":"closeListing","inputs":[{"name":"listingId","type":"uint160","internalType":"uint160"}],"outputs":[],"stateMutability":"nonpayable"},{"type":"function","name":"createListing","inputs":[{"name":"token","type":"address","internalType":"address"},{"name":"price","type":"uint256","internalType":"uint256"},{"name":"amount","type":"uint256","internalType":"uint256"}],"outputs":[{"name":"listingId","type":"uint160","internalType":"uint160"}],"stateMutability":"nonpayable"},{"type":"function","name":"getListing","inputs":[{"name":"listingId","type":"uint160","internalType":"uint160"}],"outputs":[{"name":"","type":"tuple","internalType":"struct IListingManager.Listing","components":[{"name":"seller","type":"address","internalType":"address"},{"name":"token","type":"address","internalType":"address"},{"name":"amount","type":"uint256","internalType":"uint256"},{"name":"price","type":"uint256","internalType":"uint256"},{"name":"status","type":"uint8","internalType":"enum IListingManager.ListingStatus"},{"name":"createdAt","type":"uint256","internalType":"uint256"},{"name":"updatedAt","type":"uint256","internalType":"uint256"},{"name":"amountWithdrawn","type":"uint256","internalType":"uint256"}]}],"stateMutability":"view"},{"type":"function","name":"listingExists","inputs":[{"name":"listingId","type":"uint160","internalType":"uint160"}],"outputs":[{"name":"","type":"bool","internalType":"bool"}],"stateMutability":"view"},{"type":"function","name":"pauseListing","inputs":[{"name":"listingId","type":"uint160","internalType":"uint160"},{"name":"paused","type":"bool","internalType":"bool"}],"outputs":[],"stateMutability":"nonpayable"},{"type":"function","name":"supportsInterface","inputs":[{"name":"interfaceId","type":"bytes4","internalType":"bytes4"}],"outputs":[{"name":"","type":"bool","internalType":"bool"}],"stateMutability":"view"},{"type":"function","name":"updatePrice","inputs":[{"name":"listingId","type":"uint160","internalType":"uint160"},{"name":"newPriceUsd","type":"uint256","internalType":"uint256"}],"outputs":[],"stateMutability":"nonpayable"},{"type":"function","name":"withdrawTokens","inputs":[{"name":"listingId","type":"uint160","internalType":"uint160"},{"name":"force","type":"bool","internalType":"bool"}],"outputs":[],"stateMutability":"nonpayable"},{"type":"event","name":"ListingClosed","inputs":[{"name":"listingId","type":"uint160","indexed":true,"internalType":"uint160"}],"anonymous":false},{"type":"event","name":"ListingCreated","inputs":[{"name":"listingId","type":"uint160","indexed":true,"internalType":"uint160"},{"name":"seller","type":"address","indexed":true,"internalType":"address"},{"name":"token","type":"address","indexed":true,"internalType":"address"},{"name":"price","type":"uint256","indexed":false,"internalType":"uint256"}],"anonymous":false},{"type":"event","name":"ListingPaused","inputs":[{"name":"listingId","type":"uint160","indexed":true,"internalType":"uint160"}],"anonymous":false},{"type":"event","name":"ListingPriceUpdated","inputs":[{"name":"listingId","type":"uint160","indexed":true,"internalType":"uint160"},{"name":"oldPriceUsd","type":"uint256","indexed":false,"internalType":"uint256"},{"name":"newPriceUsd","type":"uint256","indexed":false,"internalType":"uint256"}],"anonymous":false},{"type":"event","name":"ListingUnpaused","inputs":[{"name":"listingId","type":"uint160","indexed":true,"internalType":"uint160"}],"anonymous":false},{"type":"event","name":"TokensWithdrawn","inputs":[{"name":"listingId","type":"uint160","indexed":true,"internalType":"uint160"},{"name":"recipient","type":"address","indexed":true,"internalType":"address"},{"name":"amount","type":"uint256","indexed":false,"internalType":"uint256"}],"anonymous":false},{"type":"error","name":"CallerNotProfile","inputs":[{"name":"caller","type":"address","internalType":"address"}]},{"type":"error","name":"ExtensionNotSet","inputs":[{"name":"extensionName","type":"string","internalType":"string"}]},{"type":"error","name":"InvalidDataLength","inputs":[{"name":"dataKeyName","type":"string","internalType":"string"},{"name":"dataKey","type":"bytes32","internalType":"bytes32"},{"name":"dataValue","type":"bytes","internalType":"bytes"},{"name":"length","type":"uint256","internalType":"uint256"},{"name":"expectedLength","type":"uint256","internalType":"uint256"}]},{"type":"error","name":"InvalidPrice","inputs":[{"name":"price","type":"uint256","internalType":"uint256"}]},{"type":"error","name":"ListingNotFound","inputs":[{"name":"listingId","type":"uint160","internalType":"uint160"}]}],"bytecode":{"object":"0x60a03461009657601f611c5138819003918201601f19168301916001600160401b0383118484101761009a5780849260209460405283398101031261009657516001600160a01b0381169081900361009657608052604051611ba290816100af8239608051818181610118015281816102920152818161052e015281816106de015281816110080152818161113501526112af0152f35b5f80fd5b634e487b7160e01b5f52604160045260245ffdfe60c0806040526004361015610012575f80fd5b5f905f3560e01c90816301ffc9a714610c4d5750806324780c56146106a45780633d3bb43c146106765780633d3ddf9c146104fb57806373e18ae2146104d9578063d0ba07e3146104be578063d99da34814610276578063eb5ba7f2146100e85763ffa1ad7414610081575f80fd5b346100e557806003193601126100e557506100e16040516100a3604082610d61565b600681527f302e31362e3700000000000000000000000000000000000000000000000000006020820152604051918291602083526020830190610d9f565b0390f35b80fd5b50346100e55760403660031901126100e557610102610ceb565b60243561010d6112a5565b801561024b576101a27f0000000000000000000000000000000000000000000000000000000000000000926101206001600160a01b0361014c8661138f565b16610155611324565b6040517f1b99b3b00000000000000000000000000000000000000000000000000000000081526001600160a01b038086166004830152909116602482015293849190829081906044820190565b03915afa908115610240577fba773f0937789376097b09e0dea296be324af52330d46611cf6600ea68297bf7936101fe6001600160a01b039360409589908a9261020e575b50846060830199858b519b524260c08501526115d2565b835195865260208601521692a280f35b905061023291506101203d8111610239575b61022a8183610d61565b810190610fd7565b905f6101e7565b503d610220565b6040513d87823e3d90fd5b7ff9632e86000000000000000000000000000000000000000000000000000000008352600452602482fd5b50346100e55761028536610d01565b61028d6112a5565b61031c7f0000000000000000000000000000000000000000000000000000000000000000916101406001600160a01b036102c68561138f565b166102cf611324565b6040517f9c7703ac0000000000000000000000000000000000000000000000000000000081526001600160a01b038089166004830152909116602482015293849190829081906044820190565b03915afa928315610240578586938795610467575b5060e084018051908682018092116104535792610367866103e49796946001600160a01b03948c97524260c08301528a846115d2565b166001600160a01b036020850151166001600160a01b038551169260405193633b06cddd60e11b602086015283602486015260448501528760648501521515608484015260a060a48401528360c484015260c483526103c760e484610d61565b83604051809781958294632260147f60e11b845260048401610e43565b03925af1918215610240576001600160a01b0360209281927f4db1c24fb75abf2171d8c105e58c9e60528e177f75f3da2c0a29bbe50a46696195610433575b505116946040519485521692a380f35b61044e903d808b833e6104468183610d61565b810190610de0565b610423565b602489634e487b7160e01b81526011600452fd5b94505091506101403d81116104b7575b6104818185610d61565b830191610140848403126104b3576101206104a861049e86610dc3565b9460208701610e92565b94015193925f610331565b8580fd5b503d610477565b50346100e5576104d66104d036610d01565b9061112b565b80f35b50346100e55760203660031901126100e5576104d66104f6610ceb565b610ffa565b50346100e55760203660031901126100e557610515610ceb565b9061051e610f9b565b50610527610f9b565b50610552827f0000000000000000000000000000000000000000000000000000000000000000611731565b9290506001600160a01b03835116151580610660575b80610653575b80610646575b80610639575b156106055750604051906001600160a01b0383511682526001600160a01b036020840151166020830152604083015160408301526060830151606083015260808301519060038210156105f157506101009260e091608084015260a081015160a084015260c081015160c0840152015160e0820152f35b80634e487b7160e01b602492526021600452fd5b7f1457df190000000000000000000000000000000000000000000000000000000082526001600160a01b0316600452602490fd5b5060c0830151151561057a565b5060a08301511515610574565b506040830151151561056e565b506001600160a01b036020840151161515610568565b50346100e55760203660031901126100e557602061069a610695610ceb565b610f10565b6040519015158152f35b34610ba5576060366003190112610ba5576004356001600160a01b0381168103610ba557604435906106d46112a5565b6106dc611324565b7f00000000000000000000000000000000000000000000000000000000000000006001600160a01b036060816107118461138f565b16936084604051809481937f6033d230000000000000000000000000000000000000000000000000000000008352818a16600484015260243560248401528a604484015216968760648301525afa8015610b50575f915f915f608052610be9575b50946107e1955f604051633b06cddd60e11b60208201528660248201526001600160a01b038616604482015283606482015281608482015260a060a48201528160c482015260c481526107c660e482610d61565b60405180998192632260147f60e11b83528a60048401610e43565b0381836001600160a01b0389165af1968715610b5057600397610bd1575b50919495506040519361081185610d30565b845260208401916001600160a01b0387168352604085019182526060850191602435835260808601905f825260a087019142835260c0880142815260e08901915f83526080809b60405160a05261086a8260a051610d61565b600360a05152601f19820136602060a051013761088a6040519d8e610d61565b60038d525f5b601f1983018110610bbd575090610967916109048e7f9177926420b6f5e8ef012e07bc2d769af6c9fc1ce3f442e09dfc9bf32ffdb38d6108d160a05161150e565b526fffffffffffffffffffffffffffffffff1960405193851b166020840152601083526108ff603084610d61565b61150e565b5261090e8d61150e565b506fffffffffffffffffffffffffffffffff1988604051927f9177926420b6f5e8ef012e07bc2d769a0000000000000000000000000000000060208501521b16603082015260208152610962604082610d61565b61170f565b61097260a05161152f565b5260405160805160601b6bffffffffffffffffffffffff191660208201526014815261099f603482610d61565b6109a88c61152f565b526109b28b61152f565b506109be6080516116b4565b6109c960a05161153f565b526001600160a01b03808b5116985116935196519051906003821015610ba957610a1497610a06965193519451956040519a8b9960208b0161154f565b03601f198101835282610d61565b610a1d8461153f565b52610a278361153f565b506001600160a01b0381163b15610ba55760405180937f97902421000000000000000000000000000000000000000000000000000000008252604482016040600484015260a051518091526064830190602060a05101905f5b818110610b8c57505050600319838203016024840152815180825260208201916020808360051b8301019401925f915b838310610b5b57505050505091815f6001600160a01b038282960393165af1918215610b50576001600160a01b0392610b40575b5051166001600160a01b0360405192602435845216917fd051b40f09acd4b09740459712cb9c0c50030f5e944b75fa35870de8b596fd0a60206001600160a01b036080511692a460206040516001600160a01b03608051168152f35b5f610b4a91610d61565b5f610ae4565b6040513d5f823e3d90fd5b919395509193602080610b7a600193601f198682030187528951610d9f565b97019301930190928895949293610ab0565b8251845288955060209384019390920191600101610a80565b5f80fd5b634e487b7160e01b5f52602160045260245ffd5b60608e820160209081019190915201610890565b610be4903d805f833e6104468183610d61565b6107ff565b9150506060813d606011610c45575b81610c0560609383610d61565b81010312610ba557610c1681610dc3565b946040610c2560208401610dc3565b9201516001600160a01b0381168103610ba55760805294906107e1610772565b3d9150610bf8565b34610ba5576020366003190112610ba557600435907fffffffff000000000000000000000000000000000000000000000000000000008216809203610ba557817fcee78b400000000000000000000000000000000000000000000000000000000060209314908115610cc1575b5015158152f35b7f01ffc9a70000000000000000000000000000000000000000000000000000000091501483610cba565b600435906001600160a01b0382168203610ba557565b6040906003190112610ba5576004356001600160a01b0381168103610ba557906024358015158103610ba55790565b610100810190811067ffffffffffffffff821117610d4d57604052565b634e487b7160e01b5f52604160045260245ffd5b90601f8019910116810190811067ffffffffffffffff821117610d4d57604052565b67ffffffffffffffff8111610d4d57601f01601f191660200190565b805180835260209291819084018484015e5f828201840152601f01601f1916010190565b51906fffffffffffffffffffffffffffffffff82168203610ba557565b602081830312610ba55780519067ffffffffffffffff8211610ba5570181601f82011215610ba557805190610e1482610d83565b92610e226040519485610d61565b82845260208383010111610ba557815f9260208093018386015e8301015290565b6080906001600160a01b03610e6f94935f83521660208201525f60408201528160608201520190610d9f565b90565b6003821015610ba95752565b51906001600160a01b0382168203610ba557565b919082610100910312610ba557604051610eab81610d30565b8092610eb681610e7e565b8252610ec460208201610e7e565b6020830152604081015160408301526060810151606083015260808101516003811015610ba55760e0918291608085015260a081015160a085015260c081015160c08501520151910152565b6001600160a01b03604051917f3d3ddf9c00000000000000000000000000000000000000000000000000000000835216600482015261010081602481305afa9081610f64575b50610f5f575f90565b600190565b6101003d8111610f94575b610f798183610d61565b810161010082820312610ba557610f8f91610e92565b610f56565b503d610f6f565b60405190610fa882610d30565b5f60e0838281528260208201528260408201528260608201528260808201528260a08201528260c08201520152565b919061012083820312610ba557610e6f906020610ff385610dc3565b9401610e92565b611091906110066112a5565b7f00000000000000000000000000000000000000000000000000000000000000006101206001600160a01b0361103b8361138f565b16611044611324565b6040517fa314fabc0000000000000000000000000000000000000000000000000000000081526001600160a01b038087166004830152909116602482015294859190829081906044820190565b03915afa8015610b50575f935f91611106575b50608081019384516003811015610ba9576002146110ff57836110d89360026001600160a01b0397524260c08501526115d2565b167f453a296db5940e33f7a4089503bba9502f0b8ba2d4a68d70a1b30f849c0127835f80a2565b5050505050565b90506111229193506101203d81116102395761022a8183610d61565b9290925f6110a4565b6111336112a5565b7f0000000000000000000000000000000000000000000000000000000000000000916111c26101206001600160a01b0361116c8661138f565b16611175611324565b6040517ffa51b01b0000000000000000000000000000000000000000000000000000000081526001600160a01b038088166004830152909116602482015292839190829081906044820190565b03915afa8015610b50575f915f91611284575b50821561127d576001915b608082019283516003811015610ba9576003821015610ba9578114611274576001600160a01b0396611216879261122196610e72565b4260c08501526115d2565b1561124d57167f45a40bfd58da2266adedea0323794231fead48189b12f93d57c2c69a015657575f80a2565b167f1a45fe091f6572bd82bc38a08e83a6796f511ea516d99329ba77d36639fbf3815f80a2565b50505050505050565b5f916111e0565b905061129f91506101203d81116102395761022a8183610d61565b5f6111d5565b6001600160a01b037f00000000000000000000000000000000000000000000000000000000000000001633036112d757565b7f8b280634000000000000000000000000000000000000000000000000000000005f523360045260245ffd5b9190820391821161131057565b634e487b7160e01b5f52601160045260245ffd5b603319360136811161131057601f193601368111611310578111610ba5573560601c90565b9060208251920151916bffffffffffffffffffffffff198316926014821061136f575050565b6bffffffffffffffffffffffff1960149290920360031b82901b16169150565b5f6001600160a01b03916024604051809481936354f6127f60e01b83527f0fe650f0c7d6c9ad1922806605f62bcc9e334d01001129ba7783e4bb5a4d7fe16004840152165afa908115610b50575f916114f4575b5080516014810361146357506113f890611349565b60601c80156114045790565b6040517ff174a88f00000000000000000000000000000000000000000000000000000000815260206004820152601060248201527f4d61726b6574706c6163654775617264000000000000000000000000000000006044820152606490fd5b6040516312c8967360e01b815260a06004820152601060a48201527f4d61726b6574706c61636547756172640000000000000000000000000000000060c48201527f0fe650f0c7d6c9ad1922806605f62bcc9e334d01001129ba7783e4bb5a4d7fe1602482015260e06044820152925082916114e39060e4840190610d9f565b906064830152601460848301520390fd5b61150891503d805f833e6104468183610d61565b5f6113e3565b80511561151b5760200190565b634e487b7160e01b5f52603260045260245ffd5b80516001101561151b5760400190565b80516002101561151b5760600190565b9795989694939291906fffffffffffffffffffffffffffffffff199060801b1688526bffffffffffffffffffffffff199060601b1660108801526bffffffffffffffffffffffff199060601b166024870152603886015260588501526003851015610ba95760d99460f81b60788501526079840152609983015260b98201520190565b91906115e56001600160a01b03916116b4565b92169280516001600160a01b03602083015116926040830151906060840151936080810151956003871015610ba9576001600160a01b039661164796610a069560a08501519360e060c0870151960151966040519b8c9a169060208b0161154f565b823b15610ba557611697925f92836040518096819582947f7f23690c0000000000000000000000000000000000000000000000000000000084526004840152604060248401526044830190610d9f565b03925af18015610b50576116a85750565b5f6116b291610d61565b565b610e6f90604051907fc6661a4c8274c6f7d0aa0000000000000000000000000000000000000000000060208301525f602a8301526bffffffffffffffffffffffff199060601b16602c82015260208152610962604082610d61565b602081519101519060208110611723575090565b5f199060200360031b1b1690565b6001600160a01b0392915f61174d611747610f9b565b926116b4565b926024604051809781936354f6127f60e01b8352876004840152165afa938415610b50575f94611b86575b508351908115611b7d575060d98103611b0c575050815160208301516fffffffffffffffffffffffffffffffff1981169160108110611ae6575b505060801c9161181a81518060241081602418021880601010816010180281186117dc8183611303565b916020826118026117ec86610d83565b956117fa6040519788610d61565b808752610d83565b8583019390601f19013685370392860101905e611349565b60601c9061184281518060381081603818021880602410816024180281186117dc8183611303565b60601c90611892815180605810816058180218806038108160381802811861186a8183611303565b9160208261187a6117ec86610d83565b8583019390601f19013685370392860101905e61170f565b6118de82518060781081607818021880605810816058180281186118b68183611303565b916020826118c66117ec86610d83565b8583019390601f19013685370392870101905e61170f565b82518060791081607918021880607810816078180281186118ff8183611303565b9060208161192561190f85610d83565b9461191d6040519687610d61565b808652610d83565b8483019590601f19013687370391870101835e5190517fff0000000000000000000000000000000000000000000000000000000000000081169160018110611ab1575b505060f81c6003811015610ba957611a9f916119c6855180609910816099180218806079108160791802811861199e8183611303565b916020826119ae6117ec86610d83565b8583019390601f190136853703928a0101905e61170f565b93611a77611a1687518060b9108160b918021880609910816099180281186119ee8183611303565b916020826119fe6117ec86610d83565b8583019390601f190136853703928c0101905e61170f565b9680518060d9108160d9180218908160b9108260b918028218916020611a3c8483611303565b9380611a60611a4a87610d83565b96611a586040519889610d61565b808852610d83565b8684019490601f190136863703930101905e61170f565b9660405198611a858a610d30565b895260208901526040880152606087015260808601610e72565b60a084015260c083015260e082015290565b7fff000000000000000000000000000000000000000000000000000000000000009250829060010360031b1b16165f80611968565b6fffffffffffffffffffffffffffffffff199250829060100360031b1b16165f806117b2565b909150611b6c6040519384936312c8967360e01b855260a06004860152601560a48601527f4d61726b6574706c6163654c697374696e674d6170000000000000000000000060c4860152602485015260e0604485015260e4840190610d9f565b90606483015260d960848301520390fd5b935050505f9190565b611b9b9194503d805f833e6104468183610d61565b925f61177856","linkReferences":{}},"methodIdentifiers":{"VERSION()":"ffa1ad74","closeListing(uint160)":"73e18ae2","createListing(address,uint256,uint256)":"24780c56","getListing(uint160)":"3d3ddf9c","listingExists(uint160)":"3d3bb43c","pauseListing(uint160,bool)":"d0ba07e3","supportsInterface(bytes4)":"01ffc9a7","updatePrice(uint160,uint256)":"eb5ba7f2","withdrawTokens(uint160,bool)":"d99da348"},"id":6}