{
  "abi": [
    {
      "type": "constructor",
      "inputs": [
        {
          "name": "universalProfile_",
          "type": "address",
          "internalType": "address"
        }
      ],
      "stateMutability": "nonpayable"
    },
    {
      "type": "function",
      "name": "VERSION",
      "inputs": [],
      "outputs": [
        {
          "name": "",
          "type": "string",
          "internalType": "string"
        }
      ],
      "stateMutability": "view"
    },
    {
      "type": "function",
      "name": "closeListing",
      "inputs": [
        {
          "name": "listingId",
          "type": "uint160",
          "internalType": "uint160"
        }
      ],
      "outputs": [],
      "stateMutability": "nonpayable"
    },
    {
      "type": "function",
      "name": "createListing",
      "inputs": [
        {
          "name": "token",
          "type": "address",
          "internalType": "address"
        },
        {
          "name": "price",
          "type": "uint256",
          "internalType": "uint256"
        },
        {
          "name": "amount",
          "type": "uint256",
          "internalType": "uint256"
        }
      ],
      "outputs": [
        {
          "name": "listingId",
          "type": "uint160",
          "internalType": "uint160"
        }
      ],
      "stateMutability": "nonpayable"
    },
    {
      "type": "function",
      "name": "getListing",
      "inputs": [
        {
          "name": "listingId",
          "type": "uint160",
          "internalType": "uint160"
        }
      ],
      "outputs": [
        {
          "name": "",
          "type": "tuple",
          "internalType": "struct IListingManager.Listing",
          "components": [
            {
              "name": "seller",
              "type": "address",
              "internalType": "address"
            },
            {
              "name": "token",
              "type": "address",
              "internalType": "address"
            },
            {
              "name": "amount",
              "type": "uint256",
              "internalType": "uint256"
            },
            {
              "name": "price",
              "type": "uint256",
              "internalType": "uint256"
            },
            {
              "name": "status",
              "type": "uint8",
              "internalType": "enum IListingManager.ListingStatus"
            },
            {
              "name": "createdAt",
              "type": "uint256",
              "internalType": "uint256"
            },
            {
              "name": "updatedAt",
              "type": "uint256",
              "internalType": "uint256"
            },
            {
              "name": "amountWithdrawn",
              "type": "uint256",
              "internalType": "uint256"
            }
          ]
        }
      ],
      "stateMutability": "view"
    },
    {
      "type": "function",
      "name": "listingExists",
      "inputs": [
        {
          "name": "listingId",
          "type": "uint160",
          "internalType": "uint160"
        }
      ],
      "outputs": [
        {
          "name": "",
          "type": "bool",
          "internalType": "bool"
        }
      ],
      "stateMutability": "view"
    },
    {
      "type": "function",
      "name": "pauseListing",
      "inputs": [
        {
          "name": "listingId",
          "type": "uint160",
          "internalType": "uint160"
        },
        {
          "name": "paused",
          "type": "bool",
          "internalType": "bool"
        }
      ],
      "outputs": [],
      "stateMutability": "nonpayable"
    },
    {
      "type": "function",
      "name": "supportsInterface",
      "inputs": [
        {
          "name": "interfaceId",
          "type": "bytes4",
          "internalType": "bytes4"
        }
      ],
      "outputs": [
        {
          "name": "",
          "type": "bool",
          "internalType": "bool"
        }
      ],
      "stateMutability": "view"
    },
    {
      "type": "function",
      "name": "updatePrice",
      "inputs": [
        {
          "name": "listingId",
          "type": "uint160",
          "internalType": "uint160"
        },
        {
          "name": "newPriceUsd",
          "type": "uint256",
          "internalType": "uint256"
        }
      ],
      "outputs": [],
      "stateMutability": "nonpayable"
    },
    {
      "type": "function",
      "name": "withdrawTokens",
      "inputs": [
        {
          "name": "listingId",
          "type": "uint160",
          "internalType": "uint160"
        },
        {
          "name": "force",
          "type": "bool",
          "internalType": "bool"
        }
      ],
      "outputs": [],
      "stateMutability": "nonpayable"
    },
    {
      "type": "event",
      "name": "ListingClosed",
      "inputs": [
        {
          "name": "listingId",
          "type": "uint160",
          "indexed": true,
          "internalType": "uint160"
        }
      ],
      "anonymous": false
    },
    {
      "type": "event",
      "name": "ListingCreated",
      "inputs": [
        {
          "name": "marketplaceProfile",
          "type": "address",
          "indexed": true,
          "internalType": "address"
        },
        {
          "name": "listingId",
          "type": "uint160",
          "indexed": true,
          "internalType": "uint160"
        },
        {
          "name": "seller",
          "type": "address",
          "indexed": true,
          "internalType": "address"
        },
        {
          "name": "token",
          "type": "address",
          "indexed": false,
          "internalType": "address"
        },
        {
          "name": "amount",
          "type": "uint256",
          "indexed": false,
          "internalType": "uint256"
        },
        {
          "name": "price",
          "type": "uint256",
          "indexed": false,
          "internalType": "uint256"
        }
      ],
      "anonymous": false
    },
    {
      "type": "event",
      "name": "ListingPaused",
      "inputs": [
        {
          "name": "listingId",
          "type": "uint160",
          "indexed": true,
          "internalType": "uint160"
        }
      ],
      "anonymous": false
    },
    {
      "type": "event",
      "name": "ListingPriceUpdated",
      "inputs": [
        {
          "name": "listingId",
          "type": "uint160",
          "indexed": true,
          "internalType": "uint160"
        },
        {
          "name": "oldPriceUsd",
          "type": "uint256",
          "indexed": false,
          "internalType": "uint256"
        },
        {
          "name": "newPriceUsd",
          "type": "uint256",
          "indexed": false,
          "internalType": "uint256"
        }
      ],
      "anonymous": false
    },
    {
      "type": "event",
      "name": "ListingUnpaused",
      "inputs": [
        {
          "name": "listingId",
          "type": "uint160",
          "indexed": true,
          "internalType": "uint160"
        }
      ],
      "anonymous": false
    },
    {
      "type": "event",
      "name": "TokensWithdrawn",
      "inputs": [
        {
          "name": "listingId",
          "type": "uint160",
          "indexed": true,
          "internalType": "uint160"
        },
        {
          "name": "recipient",
          "type": "address",
          "indexed": true,
          "internalType": "address"
        },
        {
          "name": "amount",
          "type": "uint256",
          "indexed": false,
          "internalType": "uint256"
        }
      ],
      "anonymous": false
    },
    {
      "type": "error",
      "name": "CallerNotProfile",
      "inputs": [
        {
          "name": "caller",
          "type": "address",
          "internalType": "address"
        }
      ]
    },
    {
      "type": "error",
      "name": "ExtensionNotSet",
      "inputs": [
        {
          "name": "extensionName",
          "type": "string",
          "internalType": "string"
        }
      ]
    },
    {
      "type": "error",
      "name": "InvalidDataLength",
      "inputs": [
        {
          "name": "dataKeyName",
          "type": "string",
          "internalType": "string"
        },
        {
          "name": "dataKey",
          "type": "bytes32",
          "internalType": "bytes32"
        },
        {
          "name": "dataValue",
          "type": "bytes",
          "internalType": "bytes"
        },
        {
          "name": "length",
          "type": "uint256",
          "internalType": "uint256"
        },
        {
          "name": "expectedLength",
          "type": "uint256",
          "internalType": "uint256"
        }
      ]
    },
    {
      "type": "error",
      "name": "InvalidPrice",
      "inputs": [
        {
          "name": "price",
          "type": "uint256",
          "internalType": "uint256"
        }
      ]
    },
    {
      "type": "error",
      "name": "ListingNotFound",
      "inputs": [
        {
          "name": "listingId",
          "type": "uint160",
          "internalType": "uint160"
        }
      ]
    }
  ],
  "bytecode": {
    "object": "0x60a03461009657601f611c7d38819003918201601f19168301916001600160401b0383118484101761009a5780849260209460405283398101031261009657516001600160a01b0381169081900361009657608052604051611bce90816100af8239608051818181610119015281816102930152818161052f015281816106ea015281816110340152818161116101526112db0152f35b5f80fd5b634e487b7160e01b5f52604160045260245ffdfe610100806040526004361015610013575f80fd5b5f905f3560e01c90816301ffc9a714610c795750806324780c56146106a55780633d3bb43c146106775780633d3ddf9c146104fc57806373e18ae2146104da578063d0ba07e3146104bf578063d99da34814610277578063eb5ba7f2146100e95763ffa1ad7414610082575f80fd5b346100e657806003193601126100e657506100e26040516100a4604082610d8d565b600681527f302e31362e3700000000000000000000000000000000000000000000000000006020820152604051918291602083526020830190610dcb565b0390f35b80fd5b50346100e65760403660031901126100e657610103610d17565b60243561010e6112d1565b801561024c576101a37f0000000000000000000000000000000000000000000000000000000000000000926101206001600160a01b0361014d866113bb565b16610156611350565b6040517f1b99b3b00000000000000000000000000000000000000000000000000000000081526001600160a01b038086166004830152909116602482015293849190829081906044820190565b03915afa908115610241577fba773f0937789376097b09e0dea296be324af52330d46611cf6600ea68297bf7936101ff6001600160a01b039360409589908a9261020f575b50846060830199858b519b524260c08501526115fe565b835195865260208601521692a280f35b905061023391506101203d811161023a575b61022b8183610d8d565b810190611003565b905f6101e8565b503d610221565b6040513d87823e3d90fd5b7ff9632e86000000000000000000000000000000000000000000000000000000008352600452602482fd5b50346100e65761028636610d2d565b61028e6112d1565b61031d7f0000000000000000000000000000000000000000000000000000000000000000916101406001600160a01b036102c7856113bb565b166102d0611350565b6040517f9c7703ac0000000000000000000000000000000000000000000000000000000081526001600160a01b038089166004830152909116602482015293849190829081906044820190565b03915afa928315610241578586938795610468575b5060e084018051908682018092116104545792610368866103e59796946001600160a01b03948c97524260c08301528a846115fe565b166001600160a01b036020850151166001600160a01b038551169260405193633b06cddd60e11b602086015283602486015260448501528760648501521515608484015260a060a48401528360c484015260c483526103c860e484610d8d565b83604051809781958294632260147f60e11b845260048401610e6f565b03925af1918215610241576001600160a01b0360209281927f4db1c24fb75abf2171d8c105e58c9e60528e177f75f3da2c0a29bbe50a46696195610434575b505116946040519485521692a380f35b61044f903d808b833e6104478183610d8d565b810190610e0c565b610424565b602489634e487b7160e01b81526011600452fd5b94505091506101403d81116104b8575b6104828185610d8d565b830191610140848403126104b4576101206104a961049f86610def565b9460208701610ebe565b94015193925f610332565b8580fd5b503d610478565b50346100e6576104d76104d136610d2d565b90611157565b80f35b50346100e65760203660031901126100e6576104d76104f7610d17565b611026565b50346100e65760203660031901126100e657610516610d17565b9061051f610fc7565b50610528610fc7565b50610553827f000000000000000000000000000000000000000000000000000000000000000061175d565b9290506001600160a01b03835116151580610661575b80610654575b80610647575b8061063a575b156106065750604051906001600160a01b0383511682526001600160a01b036020840151166020830152604083015160408301526060830151606083015260808301519060038210156105f257506101009260e091608084015260a081015160a084015260c081015160c0840152015160e0820152f35b80634e487b7160e01b602492526021600452fd5b7f1457df190000000000000000000000000000000000000000000000000000000082526001600160a01b0316600452602490fd5b5060c0830151151561057b565b5060a08301511515610575565b506040830151151561056f565b506001600160a01b036020840151161515610569565b50346100e65760203660031901126100e657602061069b610696610d17565b610f3c565b6040519015158152f35b34610bd0576060366003190112610bd0576004356001600160a01b0381168103610bd0576001600160a01b039060243560a0526106e06112d1565b6106e8611350565b7f000000000000000000000000000000000000000000000000000000000000000060805260608361071a6080516113bb565b16916084604051809681937f6033d230000000000000000000000000000000000000000000000000000000008352818816600484015260a0516024840152604435604484015216948560648301525afa8015610b7b575f5f915f60c052610c14575b6107ee94505f604051633b06cddd60e11b60208201528460248201526001600160a01b03608051166044820152604435606482015281608482015260a060a48201528160c482015260c481526107d360e482610d8d565b60405180978192632260147f60e11b83528860048401610e6f565b0381836001600160a01b03608051165af1948515610b7b57600395610bfc575b509293506040519161081f83610d5c565b825260208201906001600160a01b038516825260408301906044358252606084019160a051835260808501905f825260a086019142835260c0870142815260e08801915f83526080809a60405160e05261087b8260e051610d8d565b600360e05152601f1982018036602060e051013761089c6040519d8e610d8d565b60038d525f5b818110610be857505090610976917f9177926420b6f5e8ef012e07bc2d769af6c9fc1ce3f442e09dfc9bf32ffdb38d6108dc60e05161153a565b526fffffffffffffffffffffffffffffffff1960405191831b1660208201526010815261090a603082610d8d565b6109138d61153a565b5261091d8c61153a565b506fffffffffffffffffffffffffffffffff1988604051927f9177926420b6f5e8ef012e07bc2d769a0000000000000000000000000000000060208501521b16603082015260208152610971604082610d8d565b61173b565b61098160e05161155b565b5260405160c05160601b6bffffffffffffffffffffffff19166020820152601481526109ae603482610d8d565b6109b78b61155b565b526109c18a61155b565b506109cd60c0516116e0565b6109d860e05161156b565b526001600160a01b03808a5116985116935196519051906003821015610bd457610a2397610a15965193519451956040519a8b9960208b0161157b565b03601f198101835282610d8d565b610a2c8361156b565b52610a368261156b565b506001600160a01b03608051163b15610bd05760405180927f97902421000000000000000000000000000000000000000000000000000000008252604482016040600484015260e051518091526064830190602060e05101905f5b818110610bb757505050600319838203016024840152815180825260208201916020808360051b8301019401925f915b838310610b86578987895f82808b0381836001600160a01b03608051165af1918215610b7b576001600160a01b0392610b6b575b505116906001600160a01b0360405191168152604435602082015260a05160408201526001600160a01b0360c05116907f40d9348584c3e027545b1983ace25966364154e15e6af28f2023d366a63e31d360606001600160a01b036080511692a460206040516001600160a01b0360c051168152f35b5f610b7591610d8d565b5f610af5565b6040513d5f823e3d90fd5b919395509193602080610ba5600193601f198682030187528951610dcb565b97019301930190928795949293610ac1565b8251845287955060209384019390920191600101610a91565b5f80fd5b634e487b7160e01b5f52602160045260245ffd5b60608e8201602090810191909152016108a2565b610c0f903d805f833e6104478183610d8d565b61080e565b50506060833d606011610c71575b81610c2f60609383610d8d565b81010312610bd057610c4083610def565b926040610c4f60208301610def565b910151906001600160a01b0382168203610bd0576107ee94909160c05261077c565b3d9150610c22565b34610bd0576020366003190112610bd057600435907fffffffff000000000000000000000000000000000000000000000000000000008216809203610bd057817fcee78b400000000000000000000000000000000000000000000000000000000060209314908115610ced575b5015158152f35b7f01ffc9a70000000000000000000000000000000000000000000000000000000091501483610ce6565b600435906001600160a01b0382168203610bd057565b6040906003190112610bd0576004356001600160a01b0381168103610bd057906024358015158103610bd05790565b610100810190811067ffffffffffffffff821117610d7957604052565b634e487b7160e01b5f52604160045260245ffd5b90601f8019910116810190811067ffffffffffffffff821117610d7957604052565b67ffffffffffffffff8111610d7957601f01601f191660200190565b805180835260209291819084018484015e5f828201840152601f01601f1916010190565b51906fffffffffffffffffffffffffffffffff82168203610bd057565b602081830312610bd05780519067ffffffffffffffff8211610bd0570181601f82011215610bd057805190610e4082610daf565b92610e4e6040519485610d8d565b82845260208383010111610bd057815f9260208093018386015e8301015290565b6080906001600160a01b03610e9b94935f83521660208201525f60408201528160608201520190610dcb565b90565b6003821015610bd45752565b51906001600160a01b0382168203610bd057565b919082610100910312610bd057604051610ed781610d5c565b8092610ee281610eaa565b8252610ef060208201610eaa565b6020830152604081015160408301526060810151606083015260808101516003811015610bd05760e0918291608085015260a081015160a085015260c081015160c08501520151910152565b6001600160a01b03604051917f3d3ddf9c00000000000000000000000000000000000000000000000000000000835216600482015261010081602481305afa9081610f90575b50610f8b575f90565b600190565b6101003d8111610fc0575b610fa58183610d8d565b810161010082820312610bd057610fbb91610ebe565b610f82565b503d610f9b565b60405190610fd482610d5c565b5f60e0838281528260208201528260408201528260608201528260808201528260a08201528260c08201520152565b919061012083820312610bd057610e9b90602061101f85610def565b9401610ebe565b6110bd906110326112d1565b7f00000000000000000000000000000000000000000000000000000000000000006101206001600160a01b03611067836113bb565b16611070611350565b6040517fa314fabc0000000000000000000000000000000000000000000000000000000081526001600160a01b038087166004830152909116602482015294859190829081906044820190565b03915afa8015610b7b575f935f91611132575b50608081019384516003811015610bd45760021461112b57836111049360026001600160a01b0397524260c08501526115fe565b167f453a296db5940e33f7a4089503bba9502f0b8ba2d4a68d70a1b30f849c0127835f80a2565b5050505050565b905061114e9193506101203d811161023a5761022b8183610d8d565b9290925f6110d0565b61115f6112d1565b7f0000000000000000000000000000000000000000000000000000000000000000916111ee6101206001600160a01b03611198866113bb565b166111a1611350565b6040517ffa51b01b0000000000000000000000000000000000000000000000000000000081526001600160a01b038088166004830152909116602482015292839190829081906044820190565b03915afa8015610b7b575f915f916112b0575b5082156112a9576001915b608082019283516003811015610bd4576003821015610bd45781146112a0576001600160a01b0396611242879261124d96610e9e565b4260c08501526115fe565b1561127957167f45a40bfd58da2266adedea0323794231fead48189b12f93d57c2c69a015657575f80a2565b167f1a45fe091f6572bd82bc38a08e83a6796f511ea516d99329ba77d36639fbf3815f80a2565b50505050505050565b5f9161120c565b90506112cb91506101203d811161023a5761022b8183610d8d565b5f611201565b6001600160a01b037f000000000000000000000000000000000000000000000000000000000000000016330361130357565b7f8b280634000000000000000000000000000000000000000000000000000000005f523360045260245ffd5b9190820391821161133c57565b634e487b7160e01b5f52601160045260245ffd5b603319360136811161133c57601f19360136811161133c578111610bd0573560601c90565b9060208251920151916bffffffffffffffffffffffff198316926014821061139b575050565b6bffffffffffffffffffffffff1960149290920360031b82901b16169150565b5f6001600160a01b03916024604051809481936354f6127f60e01b83527f0fe650f0c7d6c9ad1922806605f62bcc9e334d01001129ba7783e4bb5a4d7fe16004840152165afa908115610b7b575f91611520575b5080516014810361148f575061142490611375565b60601c80156114305790565b6040517ff174a88f00000000000000000000000000000000000000000000000000000000815260206004820152601060248201527f4d61726b6574706c6163654775617264000000000000000000000000000000006044820152606490fd5b6040516312c8967360e01b815260a06004820152601060a48201527f4d61726b6574706c61636547756172640000000000000000000000000000000060c48201527f0fe650f0c7d6c9ad1922806605f62bcc9e334d01001129ba7783e4bb5a4d7fe1602482015260e060448201529250829161150f9060e4840190610dcb565b906064830152601460848301520390fd5b61153491503d805f833e6104478183610d8d565b5f61140f565b8051156115475760200190565b634e487b7160e01b5f52603260045260245ffd5b8051600110156115475760400190565b8051600210156115475760600190565b9795989694939291906fffffffffffffffffffffffffffffffff199060801b1688526bffffffffffffffffffffffff199060601b1660108801526bffffffffffffffffffffffff199060601b166024870152603886015260588501526003851015610bd45760d99460f81b60788501526079840152609983015260b98201520190565b91906116116001600160a01b03916116e0565b92169280516001600160a01b03602083015116926040830151906060840151936080810151956003871015610bd4576001600160a01b039661167396610a159560a08501519360e060c0870151960151966040519b8c9a169060208b0161157b565b823b15610bd0576116c3925f92836040518096819582947f7f23690c0000000000000000000000000000000000000000000000000000000084526004840152604060248401526044830190610dcb565b03925af18015610b7b576116d45750565b5f6116de91610d8d565b565b610e9b90604051907fc6661a4c8274c6f7d0aa0000000000000000000000000000000000000000000060208301525f602a8301526bffffffffffffffffffffffff199060601b16602c82015260208152610971604082610d8d565b60208151910151906020811061174f575090565b5f199060200360031b1b1690565b6001600160a01b0392915f611779611773610fc7565b926116e0565b926024604051809781936354f6127f60e01b8352876004840152165afa938415610b7b575f94611bb2575b508351908115611ba9575060d98103611b38575050815160208301516fffffffffffffffffffffffffffffffff1981169160108110611b12575b505060801c916118468151806024108160241802188060101081601018028118611808818361132f565b9160208261182e61181886610daf565b956118266040519788610d8d565b808752610daf565b8583019390601f19013685370392860101905e611375565b60601c9061186e8151806038108160381802188060241081602418028118611808818361132f565b60601c906118be8151806058108160581802188060381081603818028118611896818361132f565b916020826118a661181886610daf565b8583019390601f19013685370392860101905e61173b565b61190a82518060781081607818021880605810816058180281186118e2818361132f565b916020826118f261181886610daf565b8583019390601f19013685370392870101905e61173b565b825180607910816079180218806078108160781802811861192b818361132f565b9060208161195161193b85610daf565b946119496040519687610d8d565b808652610daf565b8483019590601f19013687370391870101835e5190517fff0000000000000000000000000000000000000000000000000000000000000081169160018110611add575b505060f81c6003811015610bd457611acb916119f285518060991081609918021880607910816079180281186119ca818361132f565b916020826119da61181886610daf565b8583019390601f190136853703928a0101905e61173b565b93611aa3611a4287518060b9108160b91802188060991081609918028118611a1a818361132f565b91602082611a2a61181886610daf565b8583019390601f190136853703928c0101905e61173b565b9680518060d9108160d9180218908160b9108260b918028218916020611a68848361132f565b9380611a8c611a7687610daf565b96611a846040519889610d8d565b808852610daf565b8684019490601f190136863703930101905e61173b565b9660405198611ab18a610d5c565b895260208901526040880152606087015260808601610e9e565b60a084015260c083015260e082015290565b7fff000000000000000000000000000000000000000000000000000000000000009250829060010360031b1b16165f80611994565b6fffffffffffffffffffffffffffffffff199250829060100360031b1b16165f806117de565b909150611b986040519384936312c8967360e01b855260a06004860152601560a48601527f4d61726b6574706c6163654c697374696e674d6170000000000000000000000060c4860152602485015260e0604485015260e4840190610dcb565b90606483015260d960848301520390fd5b935050505f9190565b611bc79194503d805f833e6104478183610d8d565b925f6117a456",
    "linkReferences": {}
  },
  "methodIdentifiers": {
    "VERSION()": "ffa1ad74",
    "closeListing(uint160)": "73e18ae2",
    "createListing(address,uint256,uint256)": "24780c56",
    "getListing(uint160)": "3d3ddf9c",
    "listingExists(uint160)": "3d3bb43c",
    "pauseListing(uint160,bool)": "d0ba07e3",
    "supportsInterface(bytes4)": "01ffc9a7",
    "updatePrice(uint160,uint256)": "eb5ba7f2",
    "withdrawTokens(uint160,bool)": "d99da348"
  },
  "id": 6
}