{
  "abi": [
    {
      "type": "constructor",
      "inputs": [
        {
          "name": "universalProfile_",
          "type": "address",
          "internalType": "address"
        }
      ],
      "stateMutability": "nonpayable"
    },
    {
      "type": "function",
      "name": "canCloseListing",
      "inputs": [
        {
          "name": "listingId",
          "type": "uint160",
          "internalType": "uint160"
        },
        {
          "name": "caller",
          "type": "address",
          "internalType": "address"
        }
      ],
      "outputs": [
        {
          "name": "index",
          "type": "uint128",
          "internalType": "uint128"
        },
        {
          "name": "listing",
          "type": "tuple",
          "internalType": "struct IListingManager.Listing",
          "components": [
            {
              "name": "seller",
              "type": "address",
              "internalType": "address"
            },
            {
              "name": "token",
              "type": "address",
              "internalType": "address"
            },
            {
              "name": "amount",
              "type": "uint256",
              "internalType": "uint256"
            },
            {
              "name": "price",
              "type": "uint256",
              "internalType": "uint256"
            },
            {
              "name": "status",
              "type": "uint8",
              "internalType": "enum IListingManager.ListingStatus"
            },
            {
              "name": "createdAt",
              "type": "uint256",
              "internalType": "uint256"
            },
            {
              "name": "updatedAt",
              "type": "uint256",
              "internalType": "uint256"
            },
            {
              "name": "amountWithdrawn",
              "type": "uint256",
              "internalType": "uint256"
            }
          ]
        }
      ],
      "stateMutability": "view"
    },
    {
      "type": "function",
      "name": "canCreateListing",
      "inputs": [
        {
          "name": "token",
          "type": "address",
          "internalType": "address"
        },
        {
          "name": "price",
          "type": "uint256",
          "internalType": "uint256"
        },
        {
          "name": "amount",
          "type": "uint256",
          "internalType": "uint256"
        },
        {
          "name": "seller",
          "type": "address",
          "internalType": "address"
        }
      ],
      "outputs": [
        {
          "name": "newArrayLength",
          "type": "uint128",
          "internalType": "uint128"
        },
        {
          "name": "newIndex",
          "type": "uint128",
          "internalType": "uint128"
        },
        {
          "name": "listingId",
          "type": "uint160",
          "internalType": "uint160"
        }
      ],
      "stateMutability": "view"
    },
    {
      "type": "function",
      "name": "canPauseListing",
      "inputs": [
        {
          "name": "listingId",
          "type": "uint160",
          "internalType": "uint160"
        },
        {
          "name": "caller",
          "type": "address",
          "internalType": "address"
        }
      ],
      "outputs": [
        {
          "name": "index",
          "type": "uint128",
          "internalType": "uint128"
        },
        {
          "name": "listing",
          "type": "tuple",
          "internalType": "struct IListingManager.Listing",
          "components": [
            {
              "name": "seller",
              "type": "address",
              "internalType": "address"
            },
            {
              "name": "token",
              "type": "address",
              "internalType": "address"
            },
            {
              "name": "amount",
              "type": "uint256",
              "internalType": "uint256"
            },
            {
              "name": "price",
              "type": "uint256",
              "internalType": "uint256"
            },
            {
              "name": "status",
              "type": "uint8",
              "internalType": "enum IListingManager.ListingStatus"
            },
            {
              "name": "createdAt",
              "type": "uint256",
              "internalType": "uint256"
            },
            {
              "name": "updatedAt",
              "type": "uint256",
              "internalType": "uint256"
            },
            {
              "name": "amountWithdrawn",
              "type": "uint256",
              "internalType": "uint256"
            }
          ]
        }
      ],
      "stateMutability": "view"
    },
    {
      "type": "function",
      "name": "canPurchase",
      "inputs": [
        {
          "name": "listingId",
          "type": "uint160",
          "internalType": "uint160"
        },
        {
          "name": "buyer",
          "type": "address",
          "internalType": "address"
        },
        {
          "name": "quantity",
          "type": "uint256",
          "internalType": "uint256"
        }
      ],
      "outputs": [
        {
          "name": "listing",
          "type": "tuple",
          "internalType": "struct IListingManager.Listing",
          "components": [
            {
              "name": "seller",
              "type": "address",
              "internalType": "address"
            },
            {
              "name": "token",
              "type": "address",
              "internalType": "address"
            },
            {
              "name": "amount",
              "type": "uint256",
              "internalType": "uint256"
            },
            {
              "name": "price",
              "type": "uint256",
              "internalType": "uint256"
            },
            {
              "name": "status",
              "type": "uint8",
              "internalType": "enum IListingManager.ListingStatus"
            },
            {
              "name": "createdAt",
              "type": "uint256",
              "internalType": "uint256"
            },
            {
              "name": "updatedAt",
              "type": "uint256",
              "internalType": "uint256"
            },
            {
              "name": "amountWithdrawn",
              "type": "uint256",
              "internalType": "uint256"
            }
          ]
        }
      ],
      "stateMutability": "view"
    },
    {
      "type": "function",
      "name": "canUpdateListing",
      "inputs": [
        {
          "name": "listingId",
          "type": "uint160",
          "internalType": "uint160"
        },
        {
          "name": "caller",
          "type": "address",
          "internalType": "address"
        }
      ],
      "outputs": [
        {
          "name": "index",
          "type": "uint128",
          "internalType": "uint128"
        },
        {
          "name": "listing",
          "type": "tuple",
          "internalType": "struct IListingManager.Listing",
          "components": [
            {
              "name": "seller",
              "type": "address",
              "internalType": "address"
            },
            {
              "name": "token",
              "type": "address",
              "internalType": "address"
            },
            {
              "name": "amount",
              "type": "uint256",
              "internalType": "uint256"
            },
            {
              "name": "price",
              "type": "uint256",
              "internalType": "uint256"
            },
            {
              "name": "status",
              "type": "uint8",
              "internalType": "enum IListingManager.ListingStatus"
            },
            {
              "name": "createdAt",
              "type": "uint256",
              "internalType": "uint256"
            },
            {
              "name": "updatedAt",
              "type": "uint256",
              "internalType": "uint256"
            },
            {
              "name": "amountWithdrawn",
              "type": "uint256",
              "internalType": "uint256"
            }
          ]
        }
      ],
      "stateMutability": "view"
    },
    {
      "type": "function",
      "name": "canWithdrawPlatformProceeds",
      "inputs": [
        {
          "name": "caller",
          "type": "address",
          "internalType": "address"
        },
        {
          "name": "paymentToken",
          "type": "address",
          "internalType": "address"
        }
      ],
      "outputs": [
        {
          "name": "amount",
          "type": "uint256",
          "internalType": "uint256"
        }
      ],
      "stateMutability": "view"
    },
    {
      "type": "function",
      "name": "canWithdrawSellerProceeds",
      "inputs": [
        {
          "name": "seller",
          "type": "address",
          "internalType": "address"
        },
        {
          "name": "caller",
          "type": "address",
          "internalType": "address"
        },
        {
          "name": "paymentToken",
          "type": "address",
          "internalType": "address"
        }
      ],
      "outputs": [
        {
          "name": "amount",
          "type": "uint256",
          "internalType": "uint256"
        }
      ],
      "stateMutability": "view"
    },
    {
      "type": "function",
      "name": "canWithdrawTokens",
      "inputs": [
        {
          "name": "listingId",
          "type": "uint160",
          "internalType": "uint160"
        },
        {
          "name": "caller",
          "type": "address",
          "internalType": "address"
        }
      ],
      "outputs": [
        {
          "name": "index",
          "type": "uint128",
          "internalType": "uint128"
        },
        {
          "name": "listing",
          "type": "tuple",
          "internalType": "struct IListingManager.Listing",
          "components": [
            {
              "name": "seller",
              "type": "address",
              "internalType": "address"
            },
            {
              "name": "token",
              "type": "address",
              "internalType": "address"
            },
            {
              "name": "amount",
              "type": "uint256",
              "internalType": "uint256"
            },
            {
              "name": "price",
              "type": "uint256",
              "internalType": "uint256"
            },
            {
              "name": "status",
              "type": "uint8",
              "internalType": "enum IListingManager.ListingStatus"
            },
            {
              "name": "createdAt",
              "type": "uint256",
              "internalType": "uint256"
            },
            {
              "name": "updatedAt",
              "type": "uint256",
              "internalType": "uint256"
            },
            {
              "name": "amountWithdrawn",
              "type": "uint256",
              "internalType": "uint256"
            }
          ]
        },
        {
          "name": "withdrawable",
          "type": "uint256",
          "internalType": "uint256"
        }
      ],
      "stateMutability": "view"
    },
    {
      "type": "function",
      "name": "verifyPermissions",
      "inputs": [
        {
          "name": "targetContract",
          "type": "address",
          "internalType": "address"
        },
        {
          "name": "caller",
          "type": "address",
          "internalType": "address"
        },
        {
          "name": "msgValue",
          "type": "uint256",
          "internalType": "uint256"
        },
        {
          "name": "callData",
          "type": "bytes",
          "internalType": "bytes"
        }
      ],
      "outputs": [],
      "stateMutability": "nonpayable"
    },
    {
      "type": "error",
      "name": "AmountSoldExceedsListingAmount",
      "inputs": [
        {
          "name": "listingId",
          "type": "uint160",
          "internalType": "uint160"
        },
        {
          "name": "amountSold",
          "type": "uint256",
          "internalType": "uint256"
        },
        {
          "name": "listingAmount",
          "type": "uint256",
          "internalType": "uint256"
        }
      ]
    },
    {
      "type": "error",
      "name": "CannotPurchaseOwnListing",
      "inputs": [
        {
          "name": "buyer",
          "type": "address",
          "internalType": "address"
        }
      ]
    },
    {
      "type": "error",
      "name": "ConfigNotSet",
      "inputs": [
        {
          "name": "configName",
          "type": "string",
          "internalType": "string"
        }
      ]
    },
    {
      "type": "error",
      "name": "ExtensionNotSet",
      "inputs": [
        {
          "name": "extensionName",
          "type": "string",
          "internalType": "string"
        }
      ]
    },
    {
      "type": "error",
      "name": "InsufficientListingQuantity",
      "inputs": [
        {
          "name": "listingId",
          "type": "uint160",
          "internalType": "uint160"
        },
        {
          "name": "requested",
          "type": "uint256",
          "internalType": "uint256"
        },
        {
          "name": "remaining",
          "type": "uint256",
          "internalType": "uint256"
        }
      ]
    },
    {
      "type": "error",
      "name": "InsufficientTokenAllowance",
      "inputs": [
        {
          "name": "token",
          "type": "address",
          "internalType": "address"
        },
        {
          "name": "seller",
          "type": "address",
          "internalType": "address"
        },
        {
          "name": "required",
          "type": "uint256",
          "internalType": "uint256"
        },
        {
          "name": "current",
          "type": "uint256",
          "internalType": "uint256"
        }
      ]
    },
    {
      "type": "error",
      "name": "InsufficientTokens",
      "inputs": [
        {
          "name": "listingId",
          "type": "uint160",
          "internalType": "uint160"
        },
        {
          "name": "requested",
          "type": "uint256",
          "internalType": "uint256"
        },
        {
          "name": "available",
          "type": "uint256",
          "internalType": "uint256"
        }
      ]
    },
    {
      "type": "error",
      "name": "InvalidDataLength",
      "inputs": [
        {
          "name": "dataKeyName",
          "type": "string",
          "internalType": "string"
        },
        {
          "name": "dataKey",
          "type": "bytes32",
          "internalType": "bytes32"
        },
        {
          "name": "dataValue",
          "type": "bytes",
          "internalType": "bytes"
        },
        {
          "name": "length",
          "type": "uint256",
          "internalType": "uint256"
        },
        {
          "name": "expectedLength",
          "type": "uint256",
          "internalType": "uint256"
        }
      ]
    },
    {
      "type": "error",
      "name": "InvalidPrice",
      "inputs": [
        {
          "name": "price",
          "type": "uint256",
          "internalType": "uint256"
        }
      ]
    },
    {
      "type": "error",
      "name": "InvalidQuantity",
      "inputs": []
    },
    {
      "type": "error",
      "name": "InvalidToken",
      "inputs": [
        {
          "name": "token",
          "type": "address",
          "internalType": "address"
        }
      ]
    },
    {
      "type": "error",
      "name": "ListingIsClosed",
      "inputs": [
        {
          "name": "listingId",
          "type": "uint160",
          "internalType": "uint160"
        }
      ]
    },
    {
      "type": "error",
      "name": "ListingIsNotClosed",
      "inputs": [
        {
          "name": "listingId",
          "type": "uint160",
          "internalType": "uint160"
        }
      ]
    },
    {
      "type": "error",
      "name": "ListingIsPaused",
      "inputs": [
        {
          "name": "listingId",
          "type": "uint160",
          "internalType": "uint160"
        }
      ]
    },
    {
      "type": "error",
      "name": "ListingNotFound",
      "inputs": [
        {
          "name": "listingId",
          "type": "uint160",
          "internalType": "uint160"
        }
      ]
    },
    {
      "type": "error",
      "name": "MaxListingsReached",
      "inputs": []
    },
    {
      "type": "error",
      "name": "NoPlatformProceedsToWithdraw",
      "inputs": [
        {
          "name": "paymentToken",
          "type": "address",
          "internalType": "address"
        }
      ]
    },
    {
      "type": "error",
      "name": "NoSellerProceedsToWithdraw",
      "inputs": [
        {
          "name": "seller",
          "type": "address",
          "internalType": "address"
        },
        {
          "name": "paymentToken",
          "type": "address",
          "internalType": "address"
        }
      ]
    },
    {
      "type": "error",
      "name": "NoTokensToWithdraw",
      "inputs": []
    },
    {
      "type": "error",
      "name": "UnauthorizedCaller",
      "inputs": [
        {
          "name": "caller",
          "type": "address",
          "internalType": "address"
        },
        {
          "name": "listingId",
          "type": "uint160",
          "internalType": "uint160"
        }
      ]
    },
    {
      "type": "error",
      "name": "UnauthorizedPlatformProceedsWithdrawal",
      "inputs": [
        {
          "name": "caller",
          "type": "address",
          "internalType": "address"
        },
        {
          "name": "beneficiary",
          "type": "address",
          "internalType": "address"
        }
      ]
    },
    {
      "type": "error",
      "name": "UnauthorizedSellerProceedsWithdrawal",
      "inputs": [
        {
          "name": "caller",
          "type": "address",
          "internalType": "address"
        },
        {
          "name": "seller",
          "type": "address",
          "internalType": "address"
        }
      ]
    },
    {
      "type": "error",
      "name": "UnsupportedPaymentToken",
      "inputs": [
        {
          "name": "paymentToken",
          "type": "address",
          "internalType": "address"
        }
      ]
    }
  ],
  "bytecode": {
    "object": "0x60a03461009c57601f611f9a38819003918201601f19168301916001600160401b038311848410176100a05780849260209460405283398101031261009c57516001600160a01b0381169081900361009c57608052604051611ee590816100b5823960805181818160f60152818161024e0152818161059b015281816108310152818161095c01528181610bd901528181610eff015261100d0152f35b5f80fd5b634e487b7160e01b5f52604160045260245ffdfe6080806040526004361015610012575f80fd5b5f3560e01c9081630e61820514610bb4575080630ed941f4146108c75780631b99b3b01461007f578063232f7109146107df5780636033d2301461056457806397bc1e2a1461021e5780639c7703ac146100c6578063a314fabc146100845763fa51b01b1461007f575f80fd5b610ec8565b346100c25760403660031901126100c2576100ae6100a0610e09565b6100a8610e1f565b90611000565b906100be60405192839283610e9c565b0390f35b5f80fd5b346100c25760403660031901126100c25761013b6100e2610e09565b6100ea610e1f565b906100f3610fb7565b507f0000000000000000000000000000000000000000000000000000000000000000610127826101228361130b565b611478565b6101318282611586565b94909385846119fe565b6080840151600381101561020a57600119016101d5576101616101769261016b92611d03565b6040850151610ff3565b60e084015190610ff3565b80156101ad576101a5610140936fffffffffffffffffffffffffffffffff604051941684526020840190610e35565b610120820152f35b7ffba5154e000000000000000000000000000000000000000000000000000000005f5260045ffd5b6001600160a01b03827f50e8acac000000000000000000000000000000000000000000000000000000005f521660045260245ffd5b634e487b7160e01b5f52602160045260245ffd5b346100c25760603660031901126100c257610237610e09565b61023f610e1f565b9060443561024b610fb7565b507f0000000000000000000000000000000000000000000000000000000000000000906102778261130b565b6102818482611478565b604051937f3d3ddf9c000000000000000000000000000000000000000000000000000000008552610100856024816001600160a01b0380861696876004840152165afa94851561042f575f956104c1575b506080850151600381101561020a57600114610495576102f28582611a52565b821561046d5761030561030f9185611d03565b6040860151610ff3565b80831161043a575060206001600160a01b0360248183880151169560405196879384927f70a082310000000000000000000000000000000000000000000000000000000084521660048301525afa92831561042f575f936103fb575b508282116103ca575050506001600160a01b0380825116921691821461039e576101009061039c6040518092610e35565bf35b507fbc2fe9e9000000000000000000000000000000000000000000000000000000005f5260045260245ffd5b7f4d052863000000000000000000000000000000000000000000000000000000005f5260045260245260445260645ffd5b9092506020813d602011610427575b8161041760209383610f81565b810103126100c25751918561036b565b3d915061040a565b6040513d5f823e3d90fd5b92507ff9dd87f6000000000000000000000000000000000000000000000000000000005f5260045260245260445260645ffd5b7f524f409b000000000000000000000000000000000000000000000000000000005f5260045ffd5b507f594f99c0000000000000000000000000000000000000000000000000000000005f5260045260245ffd5b909450610100813d821161055c575b816104de6101009383610f81565b810103126100c257604051906104f382610f50565b6104fc81610fa3565b825261050a60208201610fa3565b6020830152604081015160408301526060810151606083015260808101519060038210156100c25760e091608084015260a081015160a084015260c081015160c0840152015160e082015293866102d2565b3d91506104d0565b346100c25760803660031901126100c25761057d610e09565b60243590604435606435906001600160a01b0382168092036100c2577f0000000000000000000000000000000000000000000000000000000000000000916fffffffffffffffffffffffffffffffff6105d584611bdd565b16946fffffffffffffffffffffffffffffffff8610156107b7576001600160a01b0385169485151590816107ac575b50156107805780156107555750811561046d576001600160a01b03604051937f65aeaa95000000000000000000000000000000000000000000000000000000008552166004840152806024840152602083604481875afa92831561042f575f93610721575b508183106106e05760018501856fffffffffffffffffffffffffffffffff82116106cc576001600160a01b0382116106cc576001600160a01b03606092604051926fffffffffffffffffffffffffffffffff821684526020840152166040820152f35b634e487b7160e01b5f52601160045260245ffd5b60849450604051937f85a474520000000000000000000000000000000000000000000000000000000085526004850152602484015260448301526064820152fd5b9092506020813d60201161074d575b8161073d60209383610f81565b810103126100c257519185610669565b3d9150610730565b7ff9632e86000000000000000000000000000000000000000000000000000000005f5260045260245ffd5b847f961c9a4f000000000000000000000000000000000000000000000000000000005f5260045260245ffd5b90503b151587610604565b7fbba89cb7000000000000000000000000000000000000000000000000000000005f5260045ffd5b346100c25760603660031901126100c2576107f8610e09565b610800610e1f565b6044356001600160a01b038116928382036100c2576001600160a01b038082169316838103610897575090610855917f0000000000000000000000000000000000000000000000000000000000000000611a9f565b90811561086757602082604051908152f35b90507f06fc7bad000000000000000000000000000000000000000000000000000000005f5260045260245260445ffd5b83907f84f5c3a0000000000000000000000000000000000000000000000000000000005f5260045260245260445ffd5b346100c25760803660031901126100c2576108e0610e09565b6108e8610e1f565b60643567ffffffffffffffff81116100c257366023820112156100c257806004013567ffffffffffffffff81116100c25736602482840101116100c257604051917f8da5cb5b0000000000000000000000000000000000000000000000000000000083526020836004816001600160a01b037f0000000000000000000000000000000000000000000000000000000000000000165afa92831561042f575f93610b58575b505f6001600160a01b0360c48197856020989796602485976040519c8d9b8c9a8b977fde928f140000000000000000000000000000000000000000000000000000000089528b60048a01521684880152166044860152604435606486015260a060848601528260a486015201848401378181018301859052601f01601f19168101030193165af1801561042f575f90610b0d575b6001600160e01b03199150167fde928f00000000000000000000000000000000000000000000000000000000008114908115610ae3575b5015610a5f57005b60846040517f08c379a000000000000000000000000000000000000000000000000000000000815260206004820152602e60248201527f4d61726b6574706c61636547756172643a204661696c656420746f207665726960448201527f6679207065726d697373696f6e730000000000000000000000000000000000006064820152fd5b7fde928f010000000000000000000000000000000000000000000000000000000091501481610a57565b506020813d602011610b50575b81610b2760209383610f81565b810103126100c257516001600160e01b0319811681036100c2576001600160e01b031990610a20565b3d9150610b1a565b90919392506020813d602011610bac575b81610b7660209383610f81565b810103126100c2575f6001600160a01b0360c48197876020986024610b9b8698610fa3565b999a5050509594509750505061098c565b3d9150610b69565b346100c25760403660031901126100c257610bcd610e09565b90610bd6610e1f565b917f0000000000000000000000000000000000000000000000000000000000000000916354f6127f60e01b81527f51d0e80c6aa0180941e8b015d6b3bf410b13fe8bacfb10e00980d2b4e4631b8a60048201525f816024816001600160a01b0387165afa90811561042f575f91610de7575b50805160148103610d565750610c5d9061115a565b60601c908115610cf7576001600160a01b0316818103610cc95783610c8281856111c2565b908115610c9457602082604051908152f35b6001600160a01b03907f506679eb000000000000000000000000000000000000000000000000000000005f521660045260245ffd5b7fd0b4eef5000000000000000000000000000000000000000000000000000000005f5260045260245260445ffd5b6040517f333a7ed000000000000000000000000000000000000000000000000000000000815260206004820152601b60248201527f506c6174666f726d50726f636565647342656e656669636961727900000000006044820152606490fd5b6040516312c8967360e01b815260a06004820152601b60a48201527f506c6174666f726d50726f636565647342656e6566696369617279000000000060c48201527f51d0e80c6aa0180941e8b015d6b3bf410b13fe8bacfb10e00980d2b4e4631b8a602482015260e0604482015292508291610dd69060e4840190611136565b906064830152601460848301520390fd5b610e0391503d805f833e610dfb8183610f81565b8101906110d3565b84610c48565b600435906001600160a01b03821682036100c257565b602435906001600160a01b03821682036100c257565b6001600160a01b0381511682526001600160a01b03602082015116602083015260408101516040830152606081015160608301526080810151600381101561020a5760e0918291608085015260a081015160a085015260c081015160c08501520151910152565b916020610ec69294936fffffffffffffffffffffffffffffffff6101208201961681520190610e35565b565b346100c25760403660031901126100c257610f3c610ee4610e09565b610f41610eef610e1f565b91610ef8610fb7565b50610f30817f0000000000000000000000000000000000000000000000000000000000000000610f2b826101228361130b565b611586565b948592919483836119fe565b611a52565b6100be60405192839283610e9c565b610100810190811067ffffffffffffffff821117610f6d57604052565b634e487b7160e01b5f52604160045260245ffd5b90601f8019910116810190811067ffffffffffffffff821117610f6d57604052565b51906001600160a01b03821682036100c257565b60405190610fc482610f50565b5f60e0838281528260208201528260408201528260608201528260808201528260a08201528260c08201520152565b919082039182116106cc57565b909161100a610fb7565b507f00000000000000000000000000000000000000000000000000000000000000009261103a836101228661130b565b6110448385611586565b809491611052838298611d03565b60408301805180831161107b575051146110735750509083610ec6926119fe565b955093505050565b826001600160a01b03877f4216bb30000000000000000000000000000000000000000000000000000000005f521660045260245260445260645ffd5b67ffffffffffffffff8111610f6d57601f01601f191660200190565b6020818303126100c25780519067ffffffffffffffff82116100c2570181601f820112156100c257805190611107826110b7565b926111156040519485610f81565b828452602083830101116100c257815f9260208093018386015e8301015290565b805180835260209291819084018484015e5f828201840152601f01601f1916010190565b9060208251920151916bffffffffffffffffffffffff1983169260148210611180575050565b6bffffffffffffffffffffffff1960149290920360031b82901b16169150565b6020815191015190602081106111b4575090565b5f199060200360031b1b1690565b5f6112306001600160a01b03936111e66bffffffffffffffffffffffff1991611e27565b16604051907f8ab97bf18cde3f6a0beb00000000000000000000000000000000000000000000602083015283602a830152602c8201526020815261122b604082610f81565b6111a0565b916024604051809581936354f6127f60e01b8352866004840152165afa91821561042f575f926112ef575b50815180156112e8576020810361127a575050611277906111a0565b90565b6112d76040519384936312c8967360e01b855260a06004860152601060a48601527f506c6174666f726d50726f63656564730000000000000000000000000000000060c4860152602485015260e0604485015260e4840190611136565b906064830152602060848301520390fd5b5050505f90565b6113049192503d805f833e610dfb8183610f81565b905f61125b565b5f6001600160a01b03916024604051809481936354f6127f60e01b83527fe025ad39e08b1260dca497ebf688206b00695b0ec113388a95cdb972bf5797be6004840152165afa90811561042f575f9161145e575b508051601481036113de57506113749061115a565b60601c80156113805790565b60646040517ff174a88f00000000000000000000000000000000000000000000000000000000815260206004820152600e60248201527f4c697374696e674d616e616765720000000000000000000000000000000000006044820152fd5b610dd692506040519283926312c8967360e01b845260a06004850152601760a48501527f4c697374696e674d616e61676572457874656e73696f6e00000000000000000060c48501527fe025ad39e08b1260dca497ebf688206b00695b0ec113388a95cdb972bf5797be602485015260e0604485015260e4840190611136565b61147291503d805f833e610dfb8183610f81565b5f61135f565b9060206001600160a01b036024819360405194859384927f3d3bb43c0000000000000000000000000000000000000000000000000000000084521696876004840152165afa90811561042f575f916114ff575b50156114d45750565b7f1457df19000000000000000000000000000000000000000000000000000000005f5260045260245ffd5b90506020813d602011611532575b8161151a60209383610f81565b810103126100c2575180151581036100c2575f6114cb565b3d915061150d565b90602082519201516fffffffffffffffffffffffffffffffff1981169260108110611563575050565b6fffffffffffffffffffffffffffffffff19929350829060100360031b1b161690565b6001600160a01b0392915f6115f461159c610fb7565b92604051907fc6661a4c8274c6f7d0aa00000000000000000000000000000000000000000000602083015283602a8301526bffffffffffffffffffffffff199060601b16602c8201526020815261122b604082610f81565b926024604051809781936354f6127f60e01b8352876004840152165afa93841561042f575f946119e2575b5083519081156119d9575060d9810361196857505061163d8261153a565b60801c916116a381518060241081602418021880601010816010180281186116658183610ff3565b9160208261168b611675866110b7565b956116836040519788610f81565b8087526110b7565b8583019390601f19013685370392860101905e61115a565b60601c906116cb81518060381081603818021880602410816024180281186116658183610ff3565b60601c9061171b81518060581081605818021880603810816038180281186116f38183610ff3565b91602082611703611675866110b7565b8583019390601f19013685370392860101905e6111a0565b611767825180607810816078180218806058108160581802811861173f8183610ff3565b9160208261174f611675866110b7565b8583019390601f19013685370392870101905e6111a0565b82518060791081607918021880607810816078180281186117888183610ff3565b906020816117ae611798856110b7565b946117a66040519687610f81565b8086526110b7565b8483019590601f19013687370391870101835e5190517fff0000000000000000000000000000000000000000000000000000000000000081169160018110611933575b505060f81c90600382101561020a5761184c84518060991081609918021880607910816079180281186118248183610ff3565b91602082611834611675866110b7565b8583019390601f19013685370392890101905e6111a0565b926118fd61189c86518060b9108160b918021880609910816099180281186118748183610ff3565b91602082611884611675866110b7565b8583019390601f190136853703928b0101905e6111a0565b9580518060d9108160d9180218908160b9108260b9180282189160206118c28483610ff3565b93806118e66118d0876110b7565b966118de6040519889610f81565b8088526110b7565b8684019490601f190136863703930101905e6111a0565b956040519761190b89610f50565b8852602088015260408701526060860152608085015260a084015260c083015260e082015290565b7fff000000000000000000000000000000000000000000000000000000000000009250829060010360031b1b16165f806117f1565b9091506119c86040519384936312c8967360e01b855260a06004860152601560a48601527f4d61726b6574706c6163654c697374696e674d6170000000000000000000000060c4860152602485015260e0604485015260e4840190611136565b90606483015260d960848301520390fd5b935050505f9190565b6119f79194503d805f833e610dfb8183610f81565b925f61161f565b91906001600160a01b03809151169116908103611a19575050565b6001600160a01b0392507f3cef048d000000000000000000000000000000000000000000000000000000005f526004521660245260445ffd5b9060800151600381101561020a57600214611a6a5750565b6001600160a01b03907fb9b6d01f000000000000000000000000000000000000000000000000000000005f521660045260245ffd5b90611b1d5f916001600160e01b0319611abf6001600160a01b0396611e27565b1690604051917f95bd83f8c95600000000000000000000000000000000000000000000000000006020840152602683015283602a8301526bffffffffffffffffffffffff199060601b16602c8201526020815261122b604082610f81565b916024604051809581936354f6127f60e01b8352866004840152165afa91821561042f575f92611bc1575b50815180156112e85760208103611b64575050611277906111a0565b6112d76040519384936312c8967360e01b855260a06004860152600e60a48601527f53656c6c657250726f636565647300000000000000000000000000000000000060c4860152602485015260e0604485015260e4840190611136565b611bd69192503d805f833e610dfb8183610f81565b905f611b48565b5f6001600160a01b03916024604051809481936354f6127f60e01b83527f9177926420b6f5e8ef012e07bc2d769af6c9fc1ce3f442e09dfc9bf32ffdb38d6004840152165afa90811561042f575f91611ce9575b5080518015611ce35760108103611c525750611c4c9061153a565b60801c90565b611cd292506040519283926312c8967360e01b845260a06004850152600f60a48501527f4c697374696e677341727261795b5d000000000000000000000000000000000060c48501527f9177926420b6f5e8ef012e07bc2d769af6c9fc1ce3f442e09dfc9bf32ffdb38d602485015260e0604485015260e4840190611136565b906064830152601060848301520390fd5b50505f90565b611cfd91503d805f833e610dfb8183610f81565b5f611c31565b5f611d676001600160a01b0393604051907f91c9eaf7d1e5ef8bc94e00000000000000000000000000000000000000000000602083015283602a8301526bffffffffffffffffffffffff199060601b16602c8201526020815261122b604082610f81565b916024604051809581936354f6127f60e01b8352866004840152165afa91821561042f575f92611e0b575b50815180156112e85760208103611dae575050611277906111a0565b6112d76040519384936312c8967360e01b855260a06004860152601160a48601527f4c697374696e67416d6f756e74536f6c6400000000000000000000000000000060c4860152602485015260e0604485015260e4840190611136565b611e209192503d805f833e610dfb8183610f81565b905f611d92565b6001600160a01b031680611e5a57507f1f5798d0cb09aa7cea42dc55969fe4e684f49ca0203f5c57332baa2d8734d13490565b62cafe018103611e8957507fd6aca1be9729c13d677335161321649cccae6a591554772516700f986f942eaa90565b9062cafe028214611ec057507f23808a32000000000000000000000000000000000000000000000000000000005f5260045260245ffd5b7faaaebeba3810b1e6b70781f14b2d72c1cb89c0b2b320c43bb67ff79f562f5ff4915056",
    "linkReferences": {}
  },
  "methodIdentifiers": {
    "canCloseListing(uint160,address)": "a314fabc",
    "canCreateListing(address,uint256,uint256,address)": "6033d230",
    "canPauseListing(uint160,address)": "fa51b01b",
    "canPurchase(uint160,address,uint256)": "97bc1e2a",
    "canUpdateListing(uint160,address)": "1b99b3b0",
    "canWithdrawPlatformProceeds(address,address)": "0e618205",
    "canWithdrawSellerProceeds(address,address,address)": "232f7109",
    "canWithdrawTokens(uint160,address)": "9c7703ac",
    "verifyPermissions(address,address,uint256,bytes)": "0ed941f4"
  },
  "id": 3
}