{
  "abi": [
    {
      "type": "constructor",
      "inputs": [
        {
          "name": "universalProfile_",
          "type": "address",
          "internalType": "address"
        }
      ],
      "stateMutability": "nonpayable"
    },
    {
      "type": "function",
      "name": "VERSION",
      "inputs": [],
      "outputs": [
        {
          "name": "",
          "type": "string",
          "internalType": "string"
        }
      ],
      "stateMutability": "view"
    },
    {
      "type": "function",
      "name": "calculateFee",
      "inputs": [
        {
          "name": "amount",
          "type": "uint256",
          "internalType": "uint256"
        }
      ],
      "outputs": [
        {
          "name": "fee",
          "type": "uint256",
          "internalType": "uint256"
        }
      ],
      "stateMutability": "view"
    },
    {
      "type": "function",
      "name": "getPlatformFeeConfig",
      "inputs": [],
      "outputs": [
        {
          "name": "platformFeeBasisPoints",
          "type": "uint256",
          "internalType": "uint256"
        },
        {
          "name": "basisPoints",
          "type": "uint256",
          "internalType": "uint256"
        }
      ],
      "stateMutability": "view"
    },
    {
      "type": "function",
      "name": "getPlatformProceeds",
      "inputs": [
        {
          "name": "paymentToken",
          "type": "address",
          "internalType": "address"
        }
      ],
      "outputs": [
        {
          "name": "amount",
          "type": "uint256",
          "internalType": "uint256"
        }
      ],
      "stateMutability": "view"
    },
    {
      "type": "function",
      "name": "getPlatformProceedsBeneficiary",
      "inputs": [],
      "outputs": [
        {
          "name": "beneficiary",
          "type": "address",
          "internalType": "address"
        }
      ],
      "stateMutability": "view"
    },
    {
      "type": "function",
      "name": "splitPayment",
      "inputs": [
        {
          "name": "totalAmount",
          "type": "uint256",
          "internalType": "uint256"
        }
      ],
      "outputs": [
        {
          "name": "platformFee",
          "type": "uint256",
          "internalType": "uint256"
        },
        {
          "name": "sellerProceeds",
          "type": "uint256",
          "internalType": "uint256"
        }
      ],
      "stateMutability": "view"
    },
    {
      "type": "function",
      "name": "supportsInterface",
      "inputs": [
        {
          "name": "interfaceId",
          "type": "bytes4",
          "internalType": "bytes4"
        }
      ],
      "outputs": [
        {
          "name": "",
          "type": "bool",
          "internalType": "bool"
        }
      ],
      "stateMutability": "view"
    },
    {
      "type": "function",
      "name": "withdrawProceeds",
      "inputs": [
        {
          "name": "paymentToken",
          "type": "address",
          "internalType": "address"
        },
        {
          "name": "recipient",
          "type": "address",
          "internalType": "address payable"
        }
      ],
      "outputs": [],
      "stateMutability": "nonpayable"
    },
    {
      "type": "event",
      "name": "PlatformProceedsWithdrawn",
      "inputs": [
        {
          "name": "marketplaceProfile",
          "type": "address",
          "indexed": true,
          "internalType": "address"
        },
        {
          "name": "paymentToken",
          "type": "address",
          "indexed": true,
          "internalType": "address"
        },
        {
          "name": "recipient",
          "type": "address",
          "indexed": false,
          "internalType": "address"
        },
        {
          "name": "amount",
          "type": "uint256",
          "indexed": false,
          "internalType": "uint256"
        }
      ],
      "anonymous": false
    },
    {
      "type": "error",
      "name": "CallerNotProfile",
      "inputs": [
        {
          "name": "caller",
          "type": "address",
          "internalType": "address"
        }
      ]
    },
    {
      "type": "error",
      "name": "ConfigNotSet",
      "inputs": [
        {
          "name": "configName",
          "type": "string",
          "internalType": "string"
        }
      ]
    },
    {
      "type": "error",
      "name": "ExtensionNotSet",
      "inputs": [
        {
          "name": "extensionName",
          "type": "string",
          "internalType": "string"
        }
      ]
    },
    {
      "type": "error",
      "name": "InvalidDataLength",
      "inputs": [
        {
          "name": "dataKeyName",
          "type": "string",
          "internalType": "string"
        },
        {
          "name": "dataKey",
          "type": "bytes32",
          "internalType": "bytes32"
        },
        {
          "name": "dataValue",
          "type": "bytes",
          "internalType": "bytes"
        },
        {
          "name": "length",
          "type": "uint256",
          "internalType": "uint256"
        },
        {
          "name": "expectedLength",
          "type": "uint256",
          "internalType": "uint256"
        }
      ]
    },
    {
      "type": "error",
      "name": "ReentrancyGuardReentrantCall",
      "inputs": []
    },
    {
      "type": "error",
      "name": "UnsupportedPaymentToken",
      "inputs": [
        {
          "name": "paymentToken",
          "type": "address",
          "internalType": "address"
        }
      ]
    }
  ],
  "bytecode": {
    "object": "0x60a03461009257601f6110cb38819003918201601f19168301916001600160401b038311848410176100965780849260209460405283398101031261009257516001600160a01b038116908190036100925760015f5560805260405161102090816100ab823960805181818160f501528181610141015281816101bb015281816106e30152818161073501526107ab0152f35b5f80fd5b634e487b7160e01b5f52604160045260245ffdfe6080806040526004361015610012575f80fd5b5f905f3560e01c90816301ffc9a7146108e35750806319a99664146107595780632e93f9f614610715578063641446eb146106c25780637d14b86f1461017657806399a5d74714610125578063c4e994a0146100dd5763ffa1ad7414610076575f80fd5b346100da57806003193601126100da57506100d6604051610098604082610997565b600681527f302e31362e37000000000000000000000000000000000000000000000000000060208201526040519182916020835260208301906109e9565b0390f35b80fd5b50346100da57806003193601126100da5760406101197f0000000000000000000000000000000000000000000000000000000000000000610c1e565b82519182526020820152f35b50346100da5760203660031901126100da57602061016e6101657f0000000000000000000000000000000000000000000000000000000000000000610c1e565b90600435610f6d565b604051908152f35b503461051657604036600319011261051657610190610981565b6024356001600160a01b0381168091036105165760025f541461069a5760025f556001600160a01b037f0000000000000000000000000000000000000000000000000000000000000000169081330361066e576040516354f6127f60e01b81527f0fe650f0c7d6c9ad1922806605f62bcc9e334d01001129ba7783e4bb5a4d7fe160048201525f81602481865afa90811561050b575f91610654575b508051601481036105c3575061024190610a7d565b60601c92831561056457603319360136811161055057601f193601368111610550578111610516576bffffffffffffffffffffffff1990351690604051917f0e61820500000000000000000000000000000000000000000000000000000000835260601c60048301526020826044816001600160a01b038516988960248301525afa91821561050b575f9261051a575b506102db90610e4a565b604051905f6020830152602082526102f4604083610997565b843b1561051657610342915f9160405193849283927f7f23690c00000000000000000000000000000000000000000000000000000000845260048401526040602484015260448301906109e9565b038183885af1801561050b576104f6575b50836104085760405191632260147f60e11b835285600484015280602484015281604484015260806064840152600460848401528560a4840152858360c48183885af19182156103fd577f9969addb75e2aaf8b43b61a96ead9d34112e77a0fa757f4ce99e939b02188057936040936103db575b505b82519182526020820152a36001815580f35b6103f6903d808a833e6103ee8183610997565b810190610a1a565b505f6103c7565b6040513d88823e3d90fd5b61049f91856040517f760d9bba0000000000000000000000000000000000000000000000000000000060208201528560248201528260448201528360648201526001608482015260a060a48201528160c482015260c4815261046b60e482610997565b60405180958192632260147f60e11b83528460048401528960248401528460448401526080606484015260848301906109e9565b038183885af19182156103fd577f9969addb75e2aaf8b43b61a96ead9d34112e77a0fa757f4ce99e939b02188057936040936104dc575b506103c9565b6104ef903d808a833e6103ee8183610997565b505f6104d6565b6105039195505f90610997565b5f935f610353565b6040513d5f823e3d90fd5b5f80fd5b9091506020813d602011610548575b8161053660209383610997565b810103126105165751906102db6102d1565b3d9150610529565b634e487b7160e01b5f52601160045260245ffd5b6040517ff174a88f00000000000000000000000000000000000000000000000000000000815260206004820152601060248201527f4d61726b6574706c6163654775617264000000000000000000000000000000006044820152606490fd5b6040516312c8967360e01b815260a06004820152601060a48201527f4d61726b6574706c61636547756172640000000000000000000000000000000060c48201527f0fe650f0c7d6c9ad1922806605f62bcc9e334d01001129ba7783e4bb5a4d7fe1602482015260e06044820152925082916106439060e48401906109e9565b906064830152601460848301520390fd5b61066891503d805f833e6103ee8183610997565b5f61022c565b7f8b280634000000000000000000000000000000000000000000000000000000005f523360045260245ffd5b7f3ee5aeb5000000000000000000000000000000000000000000000000000000005f5260045ffd5b3461051657602036600319011261051657604060043561011961070e6107077f0000000000000000000000000000000000000000000000000000000000000000610c1e565b9084610f6d565b8092610a0d565b3461051657602036600319011261051657602061016e610733610981565b7f0000000000000000000000000000000000000000000000000000000000000000610ae5565b34610516575f366003190112610516576040516354f6127f60e01b81527f51d0e80c6aa0180941e8b015d6b3bf410b13fe8bacfb10e00980d2b4e4631b8a60048201525f816024816001600160a01b037f0000000000000000000000000000000000000000000000000000000000000000165afa90811561050b575f916108c9575b508051906014820361084a576107f090610a7d565b60601c801561080457602090604051908152f35b604051630333a7ed60e41b815260206004820152601b60248201527f506c6174666f726d50726f636565647342656e656669636961727900000000006044820152606490fd5b6040516312c8967360e01b815260a06004820152601b60a48201527f506c6174666f726d50726f636565647342656e6566696369617279000000000060c48201527f51d0e80c6aa0180941e8b015d6b3bf410b13fe8bacfb10e00980d2b4e4631b8a602482015260e060448201529182916106439060e48401906109e9565b6108dd91503d805f833e6103ee8183610997565b816107db565b3461051657602036600319011261051657600435907fffffffff00000000000000000000000000000000000000000000000000000000821680920361051657817fcee78b400000000000000000000000000000000000000000000000000000000060209314908115610957575b5015158152f35b7f01ffc9a70000000000000000000000000000000000000000000000000000000091501483610950565b600435906001600160a01b038216820361051657565b90601f8019910116810190811067ffffffffffffffff8211176109b957604052565b634e487b7160e01b5f52604160045260245ffd5b67ffffffffffffffff81116109b957601f01601f191660200190565b805180835260209291819084018484015e5f828201840152601f01601f1916010190565b9190820391821161055057565b6020818303126105165780519067ffffffffffffffff8211610516570181601f8201121561051657805190610a4e826109cd565b92610a5c6040519485610997565b8284526020838301011161051657815f9260208093018386015e8301015290565b9060208251920151916bffffffffffffffffffffffff1983169260148210610aa3575050565b6bffffffffffffffffffffffff1960149290920360031b82901b16169150565b602081519101519060208110610ad7575090565b5f199060200360031b1b1690565b5f610af76001600160a01b0393610e4a565b916024604051809581936354f6127f60e01b8352866004840152165afa91821561050b575f92610bb6575b5081518015610baf5760208103610b41575050610b3e90610ac3565b90565b610b9e6040519384936312c8967360e01b855260a06004860152601060a48601527f506c6174666f726d50726f63656564730000000000000000000000000000000060c4860152602485015260e0604485015260e48401906109e9565b906064830152602060848301520390fd5b5050505f90565b610bcb9192503d805f833e6103ee8183610997565b905f610b22565b90602082519201516fffffffffffffffffffffffffffffffff1981169260108110610bfb575050565b6fffffffffffffffffffffffffffffffff19929350829060100360031b1b161690565b905f6001600160a01b03926024604051809581936354f6127f60e01b83527f3f28c387d4dab23d65a545339c0e52fb7c23a398e8a62069f313b6494bc213436004840152165afa91821561050b575f92610e2e575b50815160208103610db05750610cef610c8b83610bd2565b60801c92805180602010816020180218908160101082601018028218916020610cb48483610a0d565b9380610cd8610cc2876109cd565b96610cd06040519889610997565b8088526109cd565b8684019490601f190136863703930101905e610bd2565b60801c908215610d46578115610d0157565b6064604051630333a7ed60e41b815260206004820152601960248201527f506c6174666f726d466565202d204261736973506f696e7473000000000000006044820152fd5b6084604051630333a7ed60e41b8152602060048201526024808201527f506c6174666f726d466565202d20506c6174666f726d4665654261736973506f60448201527f696e7473000000000000000000000000000000000000000000000000000000006064820152fd5b6040516312c8967360e01b815260a06004820152600b60a48201527f506c6174666f726d46656500000000000000000000000000000000000000000060c48201527f3f28c387d4dab23d65a545339c0e52fb7c23a398e8a62069f313b6494bc21343602482015260e06044820152908190610b9e60e48301866109e9565b610e439192503d805f833e6103ee8183610997565b905f610c73565b610b3e90610e656bffffffffffffffffffffffff1991610eaf565b16604051907f8ab97bf18cde3f6a0beb0000000000000000000000000000000000000000000060208301525f602a830152602c82015260208152610eaa604082610997565b610ac3565b6001600160a01b031680610ee257507f1f5798d0cb09aa7cea42dc55969fe4e684f49ca0203f5c57332baa2d8734d13490565b62cafe018103610f1157507fd6aca1be9729c13d677335161321649cccae6a591554772516700f986f942eaa90565b9062cafe028214610f4857507f23808a32000000000000000000000000000000000000000000000000000000005f5260045260245ffd5b7faaaebeba3810b1e6b70781f14b2d72c1cb89c0b2b320c43bb67ff79f562f5ff49150565b90915f198383099280830292838086109503948086039514610ffe5784831115610fe65790829109815f0382168092046002816003021880820260020302808202600203028082026002030280820260020302808202600203028091026002030293600183805f03040190848311900302920304170290565b82634e487b715f52156003026011186020526024601cfd5b50508092501561100c570490565b634e487b7160e01b5f52601260045260245ffd",
    "linkReferences": {}
  },
  "methodIdentifiers": {
    "VERSION()": "ffa1ad74",
    "calculateFee(uint256)": "99a5d747",
    "getPlatformFeeConfig()": "c4e994a0",
    "getPlatformProceeds(address)": "2e93f9f6",
    "getPlatformProceedsBeneficiary()": "19a99664",
    "splitPayment(uint256)": "641446eb",
    "supportsInterface(bytes4)": "01ffc9a7",
    "withdrawProceeds(address,address)": "7d14b86f"
  },
  "id": 7
}