{"abi":[{"type":"constructor","inputs":[{"name":"universalProfile_","type":"address","internalType":"address"}],"stateMutability":"nonpayable"},{"type":"function","name":"VERSION","inputs":[],"outputs":[{"name":"","type":"string","internalType":"string"}],"stateMutability":"view"},{"type":"function","name":"calculateFee","inputs":[{"name":"amount","type":"uint256","internalType":"uint256"}],"outputs":[{"name":"fee","type":"uint256","internalType":"uint256"}],"stateMutability":"view"},{"type":"function","name":"getPlatformFeeConfig","inputs":[],"outputs":[{"name":"platformFeeBasisPoints","type":"uint256","internalType":"uint256"},{"name":"basisPoints","type":"uint256","internalType":"uint256"}],"stateMutability":"view"},{"type":"function","name":"getPlatformProceeds","inputs":[{"name":"paymentToken","type":"address","internalType":"address"}],"outputs":[{"name":"amount","type":"uint256","internalType":"uint256"}],"stateMutability":"view"},{"type":"function","name":"getPlatformProceedsBeneficiary","inputs":[],"outputs":[{"name":"beneficiary","type":"address","internalType":"address"}],"stateMutability":"view"},{"type":"function","name":"splitPayment","inputs":[{"name":"totalAmount","type":"uint256","internalType":"uint256"}],"outputs":[{"name":"platformFee","type":"uint256","internalType":"uint256"},{"name":"sellerProceeds","type":"uint256","internalType":"uint256"}],"stateMutability":"view"},{"type":"function","name":"supportsInterface","inputs":[{"name":"interfaceId","type":"bytes4","internalType":"bytes4"}],"outputs":[{"name":"","type":"bool","internalType":"bool"}],"stateMutability":"view"},{"type":"function","name":"withdrawProceeds","inputs":[{"name":"paymentToken","type":"address","internalType":"address"},{"name":"recipient","type":"address","internalType":"address payable"}],"outputs":[],"stateMutability":"nonpayable"},{"type":"event","name":"PlatformProceedsWithdrawn","inputs":[{"name":"recipient","type":"address","indexed":true,"internalType":"address"},{"name":"paymentToken","type":"address","indexed":true,"internalType":"address"},{"name":"amount","type":"uint256","indexed":false,"internalType":"uint256"}],"anonymous":false},{"type":"error","name":"CallerNotProfile","inputs":[{"name":"caller","type":"address","internalType":"address"}]},{"type":"error","name":"ConfigNotSet","inputs":[{"name":"configName","type":"string","internalType":"string"}]},{"type":"error","name":"ExtensionNotSet","inputs":[{"name":"extensionName","type":"string","internalType":"string"}]},{"type":"error","name":"InvalidDataLength","inputs":[{"name":"dataKeyName","type":"string","internalType":"string"},{"name":"dataKey","type":"bytes32","internalType":"bytes32"},{"name":"dataValue","type":"bytes","internalType":"bytes"},{"name":"length","type":"uint256","internalType":"uint256"},{"name":"expectedLength","type":"uint256","internalType":"uint256"}]},{"type":"error","name":"ReentrancyGuardReentrantCall","inputs":[]},{"type":"error","name":"UnsupportedPaymentToken","inputs":[{"name":"paymentToken","type":"address","internalType":"address"}]}],"bytecode":{"object":"0x60a03461009257601f6110cd38819003918201601f19168301916001600160401b038311848410176100965780849260209460405283398101031261009257516001600160a01b038116908190036100925760015f5560805260405161102290816100ab823960805181818160f501528181610141015281816101bb015281816106e50152818161073701526107ad0152f35b5f80fd5b634e487b7160e01b5f52604160045260245ffdfe6080806040526004361015610012575f80fd5b5f905f3560e01c90816301ffc9a7146108e55750806319a996641461075b5780632e93f9f614610717578063641446eb146106c45780637d14b86f1461017657806399a5d74714610125578063c4e994a0146100dd5763ffa1ad7414610076575f80fd5b346100da57806003193601126100da57506100d6604051610098604082610999565b600681527f302e31362e37000000000000000000000000000000000000000000000000000060208201526040519182916020835260208301906109eb565b0390f35b80fd5b50346100da57806003193601126100da5760406101197f0000000000000000000000000000000000000000000000000000000000000000610c20565b82519182526020820152f35b50346100da5760203660031901126100da57602061016e6101657f0000000000000000000000000000000000000000000000000000000000000000610c20565b90600435610f6f565b604051908152f35b503461051857604036600319011261051857610190610983565b6024356001600160a01b0381168091036105185760025f541461069c5760025f556001600160a01b037f00000000000000000000000000000000000000000000000000000000000000001691823303610670576040516354f6127f60e01b81527f0fe650f0c7d6c9ad1922806605f62bcc9e334d01001129ba7783e4bb5a4d7fe160048201525f81602481875afa90811561050d575f91610656575b508051601481036105c5575061024190610a7f565b60601c92831561056657603319360136811161055257601f193601368111610552578111610518576bffffffffffffffffffffffff1990351691604051927f0e61820500000000000000000000000000000000000000000000000000000000845260601c60048401526020836044816001600160a01b038516988960248301525afa92831561050d575f9361051c575b506102db90610e4c565b604051905f6020830152602082526102f4604083610999565b823b1561051857610342915f9160405193849283927f7f23690c00000000000000000000000000000000000000000000000000000000845260048401526040602484015260448301906109eb565b038183865af1801561050d576104f6575b509084809285155f146104095760c460405180958193632260147f60e11b835281600484015288602484015286604484015260806064840152600460848401528160a48401525af19081156103fe577f2ed80f7d9165114fe05b91252b9e5dbe58e999a858e740fdaed02cd732586a30926020926103dc575b505b604051908152a36001815580f35b6103f7903d8089833e6103ef8183610999565b810190610a1c565b505f6103cc565b6040513d87823e3d90fd5b6104a1906040517f760d9bba0000000000000000000000000000000000000000000000000000000060208201528160248201528660448201528460648201526001608482015260a060a48201528360c482015260c4815261046b60e482610999565b604051958680948193632260147f60e11b83528360048401528b60248401528360448401526080606484015260848301906109eb565b03925af19081156103fe577f2ed80f7d9165114fe05b91252b9e5dbe58e999a858e740fdaed02cd732586a30926020926104dc575b506103ce565b6104ef903d8089833e6103ef8183610999565b505f6104d6565b610504919295505f90610999565b5f93905f610353565b6040513d5f823e3d90fd5b5f80fd5b9092506020813d60201161054a575b8161053860209383610999565b810103126105185751916102db6102d1565b3d915061052b565b634e487b7160e01b5f52601160045260245ffd5b6040517ff174a88f00000000000000000000000000000000000000000000000000000000815260206004820152601060248201527f4d61726b6574706c6163654775617264000000000000000000000000000000006044820152606490fd5b6040516312c8967360e01b815260a06004820152601060a48201527f4d61726b6574706c61636547756172640000000000000000000000000000000060c48201527f0fe650f0c7d6c9ad1922806605f62bcc9e334d01001129ba7783e4bb5a4d7fe1602482015260e06044820152925082916106459060e48401906109eb565b906064830152601460848301520390fd5b61066a91503d805f833e6103ef8183610999565b5f61022c565b7f8b280634000000000000000000000000000000000000000000000000000000005f523360045260245ffd5b7f3ee5aeb5000000000000000000000000000000000000000000000000000000005f5260045ffd5b346105185760203660031901126105185760406004356101196107106107097f0000000000000000000000000000000000000000000000000000000000000000610c20565b9084610f6f565b8092610a0f565b3461051857602036600319011261051857602061016e610735610983565b7f0000000000000000000000000000000000000000000000000000000000000000610ae7565b34610518575f366003190112610518576040516354f6127f60e01b81527f51d0e80c6aa0180941e8b015d6b3bf410b13fe8bacfb10e00980d2b4e4631b8a60048201525f816024816001600160a01b037f0000000000000000000000000000000000000000000000000000000000000000165afa90811561050d575f916108cb575b508051906014820361084c576107f290610a7f565b60601c801561080657602090604051908152f35b604051630333a7ed60e41b815260206004820152601b60248201527f506c6174666f726d50726f636565647342656e656669636961727900000000006044820152606490fd5b6040516312c8967360e01b815260a06004820152601b60a48201527f506c6174666f726d50726f636565647342656e6566696369617279000000000060c48201527f51d0e80c6aa0180941e8b015d6b3bf410b13fe8bacfb10e00980d2b4e4631b8a602482015260e060448201529182916106459060e48401906109eb565b6108df91503d805f833e6103ef8183610999565b816107dd565b3461051857602036600319011261051857600435907fffffffff00000000000000000000000000000000000000000000000000000000821680920361051857817fcee78b400000000000000000000000000000000000000000000000000000000060209314908115610959575b5015158152f35b7f01ffc9a70000000000000000000000000000000000000000000000000000000091501483610952565b600435906001600160a01b038216820361051857565b90601f8019910116810190811067ffffffffffffffff8211176109bb57604052565b634e487b7160e01b5f52604160045260245ffd5b67ffffffffffffffff81116109bb57601f01601f191660200190565b805180835260209291819084018484015e5f828201840152601f01601f1916010190565b9190820391821161055257565b6020818303126105185780519067ffffffffffffffff8211610518570181601f8201121561051857805190610a50826109cf565b92610a5e6040519485610999565b8284526020838301011161051857815f9260208093018386015e8301015290565b9060208251920151916bffffffffffffffffffffffff1983169260148210610aa5575050565b6bffffffffffffffffffffffff1960149290920360031b82901b16169150565b602081519101519060208110610ad9575090565b5f199060200360031b1b1690565b5f610af96001600160a01b0393610e4c565b916024604051809581936354f6127f60e01b8352866004840152165afa91821561050d575f92610bb8575b5081518015610bb15760208103610b43575050610b4090610ac5565b90565b610ba06040519384936312c8967360e01b855260a06004860152601060a48601527f506c6174666f726d50726f63656564730000000000000000000000000000000060c4860152602485015260e0604485015260e48401906109eb565b906064830152602060848301520390fd5b5050505f90565b610bcd9192503d805f833e6103ef8183610999565b905f610b24565b90602082519201516fffffffffffffffffffffffffffffffff1981169260108110610bfd575050565b6fffffffffffffffffffffffffffffffff19929350829060100360031b1b161690565b905f6001600160a01b03926024604051809581936354f6127f60e01b83527f3f28c387d4dab23d65a545339c0e52fb7c23a398e8a62069f313b6494bc213436004840152165afa91821561050d575f92610e30575b50815160208103610db25750610cf1610c8d83610bd4565b60801c92805180602010816020180218908160101082601018028218916020610cb68483610a0f565b9380610cda610cc4876109cf565b96610cd26040519889610999565b8088526109cf565b8684019490601f190136863703930101905e610bd4565b60801c908215610d48578115610d0357565b6064604051630333a7ed60e41b815260206004820152601960248201527f506c6174666f726d466565202d204261736973506f696e7473000000000000006044820152fd5b6084604051630333a7ed60e41b8152602060048201526024808201527f506c6174666f726d466565202d20506c6174666f726d4665654261736973506f60448201527f696e7473000000000000000000000000000000000000000000000000000000006064820152fd5b6040516312c8967360e01b815260a06004820152600b60a48201527f506c6174666f726d46656500000000000000000000000000000000000000000060c48201527f3f28c387d4dab23d65a545339c0e52fb7c23a398e8a62069f313b6494bc21343602482015260e06044820152908190610ba060e48301866109eb565b610e459192503d805f833e6103ef8183610999565b905f610c75565b610b4090610e676bffffffffffffffffffffffff1991610eb1565b16604051907f8ab97bf18cde3f6a0beb0000000000000000000000000000000000000000000060208301525f602a830152602c82015260208152610eac604082610999565b610ac5565b6001600160a01b031680610ee457507f1f5798d0cb09aa7cea42dc55969fe4e684f49ca0203f5c57332baa2d8734d13490565b62cafe018103610f1357507fd6aca1be9729c13d677335161321649cccae6a591554772516700f986f942eaa90565b9062cafe028214610f4a57507f23808a32000000000000000000000000000000000000000000000000000000005f5260045260245ffd5b7faaaebeba3810b1e6b70781f14b2d72c1cb89c0b2b320c43bb67ff79f562f5ff49150565b90915f1983830992808302928380861095039480860395146110005784831115610fe85790829109815f0382168092046002816003021880820260020302808202600203028082026002030280820260020302808202600203028091026002030293600183805f03040190848311900302920304170290565b82634e487b715f52156003026011186020526024601cfd5b50508092501561100e570490565b634e487b7160e01b5f52601260045260245ffd","linkReferences":{}},"methodIdentifiers":{"VERSION()":"ffa1ad74","calculateFee(uint256)":"99a5d747","getPlatformFeeConfig()":"c4e994a0","getPlatformProceeds(address)":"2e93f9f6","getPlatformProceedsBeneficiary()":"19a99664","splitPayment(uint256)":"641446eb","supportsInterface(bytes4)":"01ffc9a7","withdrawProceeds(address,address)":"7d14b86f"},"id":6}