{
  "abi": [
    {
      "type": "constructor",
      "inputs": [
        {
          "name": "universalProfile_",
          "type": "address",
          "internalType": "address"
        }
      ],
      "stateMutability": "nonpayable"
    },
    {
      "type": "function",
      "name": "VERSION",
      "inputs": [],
      "outputs": [
        {
          "name": "",
          "type": "string",
          "internalType": "string"
        }
      ],
      "stateMutability": "view"
    },
    {
      "type": "function",
      "name": "getRequiredPayment",
      "inputs": [
        {
          "name": "price",
          "type": "uint256",
          "internalType": "uint256"
        },
        {
          "name": "quantity",
          "type": "uint256",
          "internalType": "uint256"
        },
        {
          "name": "tokenDecimals",
          "type": "uint8",
          "internalType": "uint8"
        }
      ],
      "outputs": [
        {
          "name": "payment",
          "type": "uint256",
          "internalType": "uint256"
        }
      ],
      "stateMutability": "view"
    },
    {
      "type": "function",
      "name": "purchase",
      "inputs": [
        {
          "name": "listingId",
          "type": "uint160",
          "internalType": "uint160"
        },
        {
          "name": "quantity",
          "type": "uint256",
          "internalType": "uint256"
        }
      ],
      "outputs": [],
      "stateMutability": "payable"
    },
    {
      "type": "function",
      "name": "supportsInterface",
      "inputs": [
        {
          "name": "interfaceId",
          "type": "bytes4",
          "internalType": "bytes4"
        }
      ],
      "outputs": [
        {
          "name": "",
          "type": "bool",
          "internalType": "bool"
        }
      ],
      "stateMutability": "view"
    },
    {
      "type": "event",
      "name": "PurchaseCompleted",
      "inputs": [
        {
          "name": "listingId",
          "type": "uint160",
          "indexed": true,
          "internalType": "uint160"
        },
        {
          "name": "buyer",
          "type": "address",
          "indexed": true,
          "internalType": "address"
        },
        {
          "name": "seller",
          "type": "address",
          "indexed": true,
          "internalType": "address"
        },
        {
          "name": "token",
          "type": "address",
          "indexed": false,
          "internalType": "address"
        },
        {
          "name": "quantity",
          "type": "uint256",
          "indexed": false,
          "internalType": "uint256"
        },
        {
          "name": "price",
          "type": "uint256",
          "indexed": false,
          "internalType": "uint256"
        },
        {
          "name": "paymentToken",
          "type": "address",
          "indexed": false,
          "internalType": "address"
        },
        {
          "name": "totalPayment",
          "type": "uint256",
          "indexed": false,
          "internalType": "uint256"
        },
        {
          "name": "platformFee",
          "type": "uint256",
          "indexed": false,
          "internalType": "uint256"
        }
      ],
      "anonymous": false
    },
    {
      "type": "error",
      "name": "CallerNotProfile",
      "inputs": [
        {
          "name": "caller",
          "type": "address",
          "internalType": "address"
        }
      ]
    },
    {
      "type": "error",
      "name": "ExtensionNotSet",
      "inputs": [
        {
          "name": "extensionName",
          "type": "string",
          "internalType": "string"
        }
      ]
    },
    {
      "type": "error",
      "name": "FailedToCloseListing",
      "inputs": [
        {
          "name": "listingId",
          "type": "uint160",
          "internalType": "uint160"
        }
      ]
    },
    {
      "type": "error",
      "name": "IncompleteOracleRound",
      "inputs": []
    },
    {
      "type": "error",
      "name": "IncorrectPayment",
      "inputs": [
        {
          "name": "sent",
          "type": "uint256",
          "internalType": "uint256"
        },
        {
          "name": "required",
          "type": "uint256",
          "internalType": "uint256"
        }
      ]
    },
    {
      "type": "error",
      "name": "InvalidDataLength",
      "inputs": [
        {
          "name": "dataKeyName",
          "type": "string",
          "internalType": "string"
        },
        {
          "name": "dataKey",
          "type": "bytes32",
          "internalType": "bytes32"
        },
        {
          "name": "dataValue",
          "type": "bytes",
          "internalType": "bytes"
        },
        {
          "name": "length",
          "type": "uint256",
          "internalType": "uint256"
        },
        {
          "name": "expectedLength",
          "type": "uint256",
          "internalType": "uint256"
        }
      ]
    },
    {
      "type": "error",
      "name": "InvalidOraclePrice",
      "inputs": [
        {
          "name": "price",
          "type": "uint256",
          "internalType": "uint256"
        }
      ]
    },
    {
      "type": "error",
      "name": "NumericOverflow",
      "inputs": [
        {
          "name": "operation",
          "type": "string",
          "internalType": "string"
        }
      ]
    },
    {
      "type": "error",
      "name": "PlatformFeeIncrementOverflow",
      "inputs": []
    },
    {
      "type": "error",
      "name": "PriceTooLow",
      "inputs": [
        {
          "name": "token",
          "type": "address",
          "internalType": "address"
        }
      ]
    },
    {
      "type": "error",
      "name": "ReentrancyGuardReentrantCall",
      "inputs": []
    },
    {
      "type": "error",
      "name": "SafeCastOverflowedIntToUint",
      "inputs": [
        {
          "name": "value",
          "type": "int256",
          "internalType": "int256"
        }
      ]
    },
    {
      "type": "error",
      "name": "SellerProceedsIncrementOverflow",
      "inputs": []
    },
    {
      "type": "error",
      "name": "StaleOraclePrice",
      "inputs": []
    },
    {
      "type": "error",
      "name": "UnsupportedPaymentToken",
      "inputs": [
        {
          "name": "paymentToken",
          "type": "address",
          "internalType": "address"
        }
      ]
    }
  ],
  "bytecode": {
    "object": "0x60a034606c57601f6115d738819003918201601f19168301916001600160401b03831184841017607057808492602094604052833981010312606c57516001600160a01b03811690819003606c5760015f55608052604051611552908161008582396080518161011f0152f35b5f80fd5b634e487b7160e01b5f52604160045260245ffdfe6080806040526004361015610012575f80fd5b5f905f3560e01c90816301ffc9a714610c155750806389ddfb85146100ea578063dac3f3b3146100b15763ffa1ad741461004a575f80fd5b346100ae57806003193601126100ae57506100aa60405161006c604082610cb3565b600681527f302e31362e3700000000000000000000000000000000000000000000000000006020820152604051918291602083526020830190610cf1565b0390f35b80fd5b50346100ae5760603660031901126100ae576044359060ff821682036100ae5760206100e283602435600435610e15565b604051908152f35b50604036600319011261084f576004356001600160a01b0381169081810361084f576024359060025f5414610bed5760025f557f0000000000000000000000000000000000000000000000000000000000000000906001600160a01b03821691823303610bc157603319360191368311610bad57601f19360192368411610bad5783811161084f576040516354f6127f60e01b81527f0fe650f0c7d6c9ad1922806605f62bcc9e334d01001129ba7783e4bb5a4d7fe16004820152903560601c91905f81602481895afa908115610844575f91610b93575b50805160148103610b1357506101d790610da5565b60601c928315610acd57610100606494604051958680927f97bc1e2a0000000000000000000000000000000000000000000000000000000082528c60048301528760248301528b60448301525afa938415610844575f94610a05575b50600493943592602086019060206001600160a01b038351166040519788809263313ce56760e01b82525afa958615610844575f966109d4575b5061027e60608801968a8851610e15565b948581036109a457506040516354f6127f60e01b81527f41e53ab0fa691be5498a6ac37565f236f898a574d8beb10f8037f701f1066f4e60048201525f816024818c5afa908115610844575f9161098a575b508051601481036108f957506102e590610da5565b60601c9586156108b45760406024978151988980927f641446eb0000000000000000000000000000000000000000000000000000000082528a60048301525afa8015610844575f975f9161087b575b5088519061034b6001600160a01b038316876111d7565b9081019081109182610853576103e1907fffffffff000000000000000000000000000000000000000000000000000000006103855f611457565b169060405191654adec1fc64ab60d11b602084015260268301525f602a8301526bffffffffffffffffffffffff19906bffffffffffffffffffffffff199060601b1616602c820152602081526103dc604082610cb3565b61106c565b906040519215026020830152602082526103fc604083610cb3565b8a3b1561084f57610427918b5f9283604051809681958294631fc8da4360e21b845260048401611052565b03925af180156108445761082f575b5061044084611315565b8781019081109081610807578d91906104726103dc6bffffffffffffffffffffffff1961046c86611457565b166114fc565b9060405192150260208301526020825261048d604083610cb3565b8b3b15610803576104b8918c849283604051809681958294631fc8da4360e21b845260048401611052565b03925af180156107f8576107df575b50506104d3858561108e565b99808b019a8b1080610781578d9b6104ea886113fc565b90604051921502602083015260208252610505604083610cb3565b8b3b1561077d57610530918c8e9283604051809681958294631fc8da4360e21b845260048401611052565b03925af1908115610759578c91610764575b5091610602926001600160a01b038651168c604051917f760d9bba0000000000000000000000000000000000000000000000000000000060208401528160248401528760448401528560648401526001608484015260a060a48401528360c484015260c483526105b360e484610cb3565b836040518098819582947f44c028fe0000000000000000000000000000000000000000000000000000000084528460048501526024840152836044840152608060648401526084830190610cf1565b03925af19081156107595760409961067a998f958f90956001600160a01b038f81907f073591b477f975da40238fcec5e4c20061a2323bf71c3c3d41775d2593e8a16b9960c099610737575b5051169a51169451908e5195865260208601528d8501526060840152608083015260a0820152a461108e565b910151111561068c575b506001815580f35b81906040518260208201917f73e18ae2000000000000000000000000000000000000000000000000000000008352866024820152602481526106cf604482610cb3565b51925af13d15610732573d6106e381610cd5565b906106f16040519283610cb3565b81528360203d92013e5b15610707578181610684565b7f8f3b0155000000000000000000000000000000000000000000000000000000008252600452602490fd5b6106fb565b610752903d8088833e61074a8183610cb3565b810190610d42565b505f61064e565b6040513d8e823e3d90fd5b8161076e91610cb3565b610779578a5f610542565b8a80fd5b8c80fd5b60646040517f4d5da6e100000000000000000000000000000000000000000000000000000000815260206004820152601360248201527f6c697374696e6720616d6f756e7420736f6c64000000000000000000000000006044820152fd5b816107e991610cb3565b6107f4578b5f6104c7565b8b80fd5b6040513d84823e3d90fd5b8280fd5b60048e7f3bf61ddf000000000000000000000000000000000000000000000000000000008152fd5b61083c919c505f90610cb3565b5f9a5f610436565b6040513d5f823e3d90fd5b5f80fd5b7f49aef7a1000000000000000000000000000000000000000000000000000000005f5260045ffd5b9750506040873d6040116108ac575b8161089760409383610cb3565b8101031261084f57602087519701515f610334565b3d915061088a565b606460405163f174a88f60e01b815260206004820152601760248201527f506c6174666f726d50726f63656564734d616e616765720000000000000000006044820152fd5b61097992506040519283926312c8967360e01b845260a06004850152602060a48501527f506c6174666f726d50726f63656564734d616e61676572457874656e73696f6e60c48501527f41e53ab0fa691be5498a6ac37565f236f898a574d8beb10f8037f701f1066f4e602485015260e0604485015260e4840190610cf1565b906064830152601460848301520390fd5b61099e91503d805f833e61074a8183610cb3565b5f6102d0565b85907f0d35e921000000000000000000000000000000000000000000000000000000005f5260045260245260445ffd5b6109f791965060203d6020116109fe575b6109ef8183610cb3565b810190610d29565b945f61026d565b503d6109e5565b9350610100843d8211610ac5575b81610a216101009383610cb3565b8101031261084f57604051610100810181811067ffffffffffffffff821117610ab157604052610a5085610d15565b8152610a5e60208601610d15565b602082015260408501516040820152606085015160608201526080850151600381101561084f5760049560e091608084015260a081015160a084015260c081015160c0840152015160e082015293610233565b634e487b7160e01b5f52604160045260245ffd5b3d9150610a13565b60405163f174a88f60e01b815260206004820152601060248201527f4d61726b6574706c6163654775617264000000000000000000000000000000006044820152606490fd5b6040516312c8967360e01b815260a06004820152601060a48201527f4d61726b6574706c61636547756172640000000000000000000000000000000060c48201527f0fe650f0c7d6c9ad1922806605f62bcc9e334d01001129ba7783e4bb5a4d7fe1602482015260e06044820152925082916109799060e4840190610cf1565b610ba791503d805f833e61074a8183610cb3565b5f6101c2565b634e487b7160e01b5f52601160045260245ffd5b7f8b280634000000000000000000000000000000000000000000000000000000005f523360045260245ffd5b7f3ee5aeb5000000000000000000000000000000000000000000000000000000005f5260045ffd5b3461084f57602036600319011261084f57600435907fffffffff00000000000000000000000000000000000000000000000000000000821680920361084f57817fcee78b400000000000000000000000000000000000000000000000000000000060209314908115610c89575b5015158152f35b7f01ffc9a70000000000000000000000000000000000000000000000000000000091501483610c82565b90601f8019910116810190811067ffffffffffffffff821117610ab157604052565b67ffffffffffffffff8111610ab157601f01601f191660200190565b805180835260209291819084018484015e5f828201840152601f01601f1916010190565b51906001600160a01b038216820361084f57565b9081602091031261084f575160ff8116810361084f5790565b60208183031261084f5780519067ffffffffffffffff821161084f570181601f8201121561084f57805190610d7682610cd5565b92610d846040519485610cb3565b8284526020838301011161084f57815f9260208093018386015e8301015290565b9060208251920151916bffffffffffffffffffffffff1983169260148210610dcb575050565b6bffffffffffffffffffffffff1960149290920360031b82901b16169150565b81810292918115918404141715610bad57565b519069ffffffffffffffffffff8216820361084f57565b90610e1f91610deb565b6001600160a01b03610e305f611178565b1691604051927ffeaf968c00000000000000000000000000000000000000000000000000000000845260a084600481845afa8015610844575f5f955f905f93610ffc575b505f8712610fd0578615610fa4574203428111610bad57610e1010610f7c5769ffffffffffffffffffff809116911610610f545760206004916040519283809263313ce56760e01b82525afa80156108445760ff915f91610f35575b501660120160ff8111610bad5760ff6005199116019060ff8211610bad5760ff80911691160360ff8111610bad5760ff1690604d8211610bad57610f1791600a0a90610deb565b8115610f21570490565b634e487b7160e01b5f52601260045260245ffd5b610f4e915060203d6020116109fe576109ef8183610cb3565b5f610ed0565b7fe6af8a82000000000000000000000000000000000000000000000000000000005f5260045ffd5b7fa887f2d8000000000000000000000000000000000000000000000000000000005f5260045ffd5b867f7627dbbe000000000000000000000000000000000000000000000000000000005f5260045260245ffd5b867fa8ce4432000000000000000000000000000000000000000000000000000000005f5260045260245ffd5b965050505060a0843d60a01161104a575b8161101a60a09383610cb3565b8101031261084f5761102b84610dfe565b6020850151611041608060608801519701610dfe565b9190955f610e74565b3d915061100d565b604090611069939281528160208201520190610cf1565b90565b602081519101519060208110611080575090565b5f199060200360031b1b1690565b5f6110a06001600160a01b03936113fc565b916024604051809581936354f6127f60e01b8352866004840152165afa918215610844575f9261115c575b508151801561115557602081036110e75750506110699061106c565b6111446040519384936312c8967360e01b855260a06004860152601160a48601527f4c697374696e67416d6f756e74536f6c6400000000000000000000000000000060c4860152602485015260e0604485015260e4840190610cf1565b906064830152602060848301520390fd5b5050505f90565b6111719192503d805f833e61074a8183610cb3565b905f6110cb565b6001600160a01b03169081156111be5762cafe0282146111a557506311c0451960e11b5f5260045260245ffd5b73c7f3acebe05482eecd668df1fcf1b59e6d14f77b9150565b733153e4d03cf97b230fc9c9d0ecce5b2f0834d1309150565b5f6112556001600160a01b03937fffffffff0000000000000000000000000000000000000000000000000000000061120e84611457565b169060405191654adec1fc64ab60d11b6020840152602683015283602a8301526bffffffffffffffffffffffff199060601b16602c820152602081526103dc604082610cb3565b916024604051809581936354f6127f60e01b8352866004840152165afa918215610844575f926112f9575b5081518015611155576020810361129c5750506110699061106c565b6111446040519384936312c8967360e01b855260a06004860152600e60a48601527f53656c6c657250726f636565647300000000000000000000000000000000000060c4860152602485015260e0604485015260e4840190610cf1565b61130e9192503d805f833e61074a8183610cb3565b905f611280565b6001600160a01b03905f61133c6103dc6bffffffffffffffffffffffff1961046c84611457565b916024604051809581936354f6127f60e01b8352866004840152165afa918215610844575f926113e0575b508151801561115557602081036113835750506110699061106c565b6111446040519384936312c8967360e01b855260a06004860152601060a48601527f506c6174666f726d50726f63656564730000000000000000000000000000000060c4860152602485015260e0604485015260e4840190610cf1565b6113f59192503d805f833e61074a8183610cb3565b905f611367565b61106990604051907f91c9eaf7d1e5ef8bc94e0000000000000000000000000000000000000000000060208301525f602a8301526bffffffffffffffffffffffff199060601b16602c820152602081526103dc604082610cb3565b6001600160a01b03168061148a57507f1f5798d0cb09aa7cea42dc55969fe4e684f49ca0203f5c57332baa2d8734d13490565b62cafe0181036114b957507fd6aca1be9729c13d677335161321649cccae6a591554772516700f986f942eaa90565b9062cafe0282146114d757506311c0451960e11b5f5260045260245ffd5b7faaaebeba3810b1e6b70781f14b2d72c1cb89c0b2b320c43bb67ff79f562f5ff49150565b90604051917f8ab97bf18cde3f6a0beb0000000000000000000000000000000000000000000060208401525f602a8401526bffffffffffffffffffffffff1916602c83015260208252611550604083610cb3565b56",
    "linkReferences": {}
  },
  "methodIdentifiers": {
    "VERSION()": "ffa1ad74",
    "getRequiredPayment(uint256,uint256,uint8)": "dac3f3b3",
    "purchase(uint160,uint256)": "89ddfb85",
    "supportsInterface(bytes4)": "01ffc9a7"
  },
  "id": 8
}