{"abi":[{"type":"constructor","inputs":[{"name":"universalProfile_","type":"address","internalType":"address"}],"stateMutability":"nonpayable"},{"type":"function","name":"VERSION","inputs":[],"outputs":[{"name":"","type":"string","internalType":"string"}],"stateMutability":"view"},{"type":"function","name":"getSellerProceeds","inputs":[{"name":"seller","type":"address","internalType":"address"},{"name":"paymentToken","type":"address","internalType":"address"}],"outputs":[{"name":"amount","type":"uint256","internalType":"uint256"}],"stateMutability":"view"},{"type":"function","name":"supportsInterface","inputs":[{"name":"interfaceId","type":"bytes4","internalType":"bytes4"}],"outputs":[{"name":"","type":"bool","internalType":"bool"}],"stateMutability":"view"},{"type":"function","name":"withdrawProceeds","inputs":[{"name":"seller","type":"address","internalType":"address"},{"name":"paymentToken","type":"address","internalType":"address"},{"name":"recipient","type":"address","internalType":"address payable"}],"outputs":[],"stateMutability":"nonpayable"},{"type":"event","name":"SellerProceedsWithdrawn","inputs":[{"name":"seller","type":"address","indexed":true,"internalType":"address"},{"name":"recipient","type":"address","indexed":true,"internalType":"address"},{"name":"paymentToken","type":"address","indexed":true,"internalType":"address"},{"name":"amount","type":"uint256","indexed":false,"internalType":"uint256"}],"anonymous":false},{"type":"error","name":"CallerNotProfile","inputs":[{"name":"caller","type":"address","internalType":"address"}]},{"type":"error","name":"ExtensionNotSet","inputs":[{"name":"extensionName","type":"string","internalType":"string"}]},{"type":"error","name":"InvalidDataLength","inputs":[{"name":"dataKeyName","type":"string","internalType":"string"},{"name":"dataKey","type":"bytes32","internalType":"bytes32"},{"name":"dataValue","type":"bytes","internalType":"bytes"},{"name":"length","type":"uint256","internalType":"uint256"},{"name":"expectedLength","type":"uint256","internalType":"uint256"}]},{"type":"error","name":"ReentrancyGuardReentrantCall","inputs":[]},{"type":"error","name":"UnsupportedPaymentToken","inputs":[{"name":"paymentToken","type":"address","internalType":"address"}]}],"bytecode":{"object":"0x60a034607257601f610b3238819003918201601f19168301916001600160401b03831184841017607657808492602094604052833981010312607257516001600160a01b0381169081900360725760015f55608052604051610aa7908161008b823960805181818160ff01526106850152f35b5f80fd5b634e487b7160e01b5f52604160045260245ffdfe6080806040526004361015610012575f80fd5b5f905f3560e01c90816301ffc9a7146106b157508063889816ff1461065c578063fa30a323146100b15763ffa1ad741461004a575f80fd5b346100ae57806003193601126100ae57506100aa60405161006c60408261077b565b600681527f302e31362e37000000000000000000000000000000000000000000000000000060208201526040519182916020835260208301906107b1565b0390f35b80fd5b5034610489576060366003190112610489576100cb61074f565b6100d3610765565b604435906001600160a01b0382168092036104895760025f54146106345760025f556001600160a01b037f00000000000000000000000000000000000000000000000000000000000000001692833303610608576040516354f6127f60e01b81527f0fe650f0c7d6c9ad1922806605f62bcc9e334d01001129ba7783e4bb5a4d7fe160048201525f81602481885afa90811561047e575f916105ee575b5080516014810361055d575060208151910151906bffffffffffffffffffffffff1982169160148210610538575b505060601c9384156104d95760331936013681116104c557601f1936013681116104c5578111610489576bffffffffffffffffffffffff1990351692604051927f232f71090000000000000000000000000000000000000000000000000000000084526001600160a01b0381169485600486015260601c60248501526020846064816001600160a01b0386169a8b60448301525afa93841561047e575f9461048d575b509061024c91610959565b604051905f60208301526020825261026560408361077b565b823b15610489576102b3915f9160405193849283927f7f23690c00000000000000000000000000000000000000000000000000000000845260048401526040602484015260448301906107b1565b038183865af1801561047e57610467575b509085809286155f1461037a5760c460405180958193632260147f60e11b835281600484015289602484015286604484015260806064840152600460848401528160a48401525af190811561036f577f16d8390bc06c5bcb1ae2a767eacce9dd23a662fc1fd1b7304d8edcf7cd3155da9260209261034d575b505b604051908152a46001815580f35b610368903d808a833e610360818361077b565b8101906107d5565b505f61033d565b6040513d88823e3d90fd5b610412906040517f760d9bba0000000000000000000000000000000000000000000000000000000060208201528160248201528760448201528460648201526001608482015260a060a48201528360c482015260c481526103dc60e48261077b565b604051958680948193632260147f60e11b83528360048401528c60248401528360448401526080606484015260848301906107b1565b03925af190811561036f577f16d8390bc06c5bcb1ae2a767eacce9dd23a662fc1fd1b7304d8edcf7cd3155da9260209261044d575b5061033f565b610460903d808a833e610360818361077b565b505f610447565b610475919296505f9061077b565b5f94905f6102c4565b6040513d5f823e3d90fd5b5f80fd5b919093506020823d6020116104bd575b816104aa6020938361077b565b810103126104895790519261024c610241565b3d915061049d565b634e487b7160e01b5f52601160045260245ffd5b6040517ff174a88f00000000000000000000000000000000000000000000000000000000815260206004820152601060248201527f4d61726b6574706c6163654775617264000000000000000000000000000000006044820152606490fd5b6bffffffffffffffffffffffff1960149290920360031b82901b161690505f8061019e565b6040516312c8967360e01b815260a06004820152601060a48201527f4d61726b6574706c61636547756172640000000000000000000000000000000060c48201527f0fe650f0c7d6c9ad1922806605f62bcc9e334d01001129ba7783e4bb5a4d7fe1602482015260e06044820152925082916105dd9060e48401906107b1565b906064830152601460848301520390fd5b61060291503d805f833e610360818361077b565b5f610170565b7f8b280634000000000000000000000000000000000000000000000000000000005f523360045260245ffd5b7f3ee5aeb5000000000000000000000000000000000000000000000000000000005f5260045ffd5b346104895760403660031901126104895760206106a961067a61074f565b610682610765565b907f000000000000000000000000000000000000000000000000000000000000000061086a565b604051908152f35b3461048957602036600319011261048957600435907fffffffff00000000000000000000000000000000000000000000000000000000821680920361048957817fcee78b400000000000000000000000000000000000000000000000000000000060209314908115610725575b5015158152f35b7f01ffc9a7000000000000000000000000000000000000000000000000000000009150148361071e565b600435906001600160a01b038216820361048957565b602435906001600160a01b038216820361048957565b90601f8019910116810190811067ffffffffffffffff82111761079d57604052565b634e487b7160e01b5f52604160045260245ffd5b805180835260209291819084018484015e5f828201840152601f01601f1916010190565b6020818303126104895780519067ffffffffffffffff8211610489570181601f820112156104895780519067ffffffffffffffff821161079d5760405192610827601f8401601f19166020018561077b565b8284526020838301011161048957815f9260208093018386015e8301015290565b60208151910151906020811061085c575090565b5f199060200360031b1b1690565b9061087e6001600160a01b03935f92610959565b916024604051809581936354f6127f60e01b8352866004840152165afa91821561047e575f9261093d575b508151801561093657602081036108c85750506108c590610848565b90565b6109256040519384936312c8967360e01b855260a06004860152600e60a48601527f53656c6c657250726f636565647300000000000000000000000000000000000060c4860152602485015260e0604485015260e48401906107b1565b906064830152602060848301520390fd5b5050505f90565b6109529192503d805f833e610360818361077b565b905f6108a9565b7fffffffff000000000000000000000000000000000000000000000000000000006109866108c5936109e9565b1690604051917f95bd83f8c9560000000000000000000000000000000000000000000000000000602084015260268301525f602a8301526bffffffffffffffffffffffff199060601b16602c820152602081526109e460408261077b565b610848565b6001600160a01b031680610a1c57507f1f5798d0cb09aa7cea42dc55969fe4e684f49ca0203f5c57332baa2d8734d13490565b62cafe018103610a4b57507fd6aca1be9729c13d677335161321649cccae6a591554772516700f986f942eaa90565b9062cafe028214610a8257507f23808a32000000000000000000000000000000000000000000000000000000005f5260045260245ffd5b7faaaebeba3810b1e6b70781f14b2d72c1cb89c0b2b320c43bb67ff79f562f5ff4915056","linkReferences":{}},"methodIdentifiers":{"VERSION()":"ffa1ad74","getSellerProceeds(address,address)":"889816ff","supportsInterface(bytes4)":"01ffc9a7","withdrawProceeds(address,address,address)":"fa30a323"},"id":9}