{
  "abi": [
    {
      "type": "constructor",
      "inputs": [
        {
          "name": "universalProfile_",
          "type": "address",
          "internalType": "address"
        }
      ],
      "stateMutability": "nonpayable"
    },
    {
      "type": "function",
      "name": "VERSION",
      "inputs": [],
      "outputs": [
        {
          "name": "",
          "type": "string",
          "internalType": "string"
        }
      ],
      "stateMutability": "view"
    },
    {
      "type": "function",
      "name": "getSellerProceeds",
      "inputs": [
        {
          "name": "seller",
          "type": "address",
          "internalType": "address"
        },
        {
          "name": "paymentToken",
          "type": "address",
          "internalType": "address"
        }
      ],
      "outputs": [
        {
          "name": "amount",
          "type": "uint256",
          "internalType": "uint256"
        }
      ],
      "stateMutability": "view"
    },
    {
      "type": "function",
      "name": "supportsInterface",
      "inputs": [
        {
          "name": "interfaceId",
          "type": "bytes4",
          "internalType": "bytes4"
        }
      ],
      "outputs": [
        {
          "name": "",
          "type": "bool",
          "internalType": "bool"
        }
      ],
      "stateMutability": "view"
    },
    {
      "type": "function",
      "name": "withdrawProceeds",
      "inputs": [
        {
          "name": "seller",
          "type": "address",
          "internalType": "address"
        },
        {
          "name": "paymentToken",
          "type": "address",
          "internalType": "address"
        },
        {
          "name": "recipient",
          "type": "address",
          "internalType": "address payable"
        }
      ],
      "outputs": [],
      "stateMutability": "nonpayable"
    },
    {
      "type": "event",
      "name": "SellerProceedsWithdrawn",
      "inputs": [
        {
          "name": "marketplaceProfile",
          "type": "address",
          "indexed": true,
          "internalType": "address"
        },
        {
          "name": "seller",
          "type": "address",
          "indexed": true,
          "internalType": "address"
        },
        {
          "name": "paymentToken",
          "type": "address",
          "indexed": true,
          "internalType": "address"
        },
        {
          "name": "recipient",
          "type": "address",
          "indexed": false,
          "internalType": "address"
        },
        {
          "name": "amount",
          "type": "uint256",
          "indexed": false,
          "internalType": "uint256"
        }
      ],
      "anonymous": false
    },
    {
      "type": "error",
      "name": "CallerNotProfile",
      "inputs": [
        {
          "name": "caller",
          "type": "address",
          "internalType": "address"
        }
      ]
    },
    {
      "type": "error",
      "name": "ExtensionNotSet",
      "inputs": [
        {
          "name": "extensionName",
          "type": "string",
          "internalType": "string"
        }
      ]
    },
    {
      "type": "error",
      "name": "InvalidDataLength",
      "inputs": [
        {
          "name": "dataKeyName",
          "type": "string",
          "internalType": "string"
        },
        {
          "name": "dataKey",
          "type": "bytes32",
          "internalType": "bytes32"
        },
        {
          "name": "dataValue",
          "type": "bytes",
          "internalType": "bytes"
        },
        {
          "name": "length",
          "type": "uint256",
          "internalType": "uint256"
        },
        {
          "name": "expectedLength",
          "type": "uint256",
          "internalType": "uint256"
        }
      ]
    },
    {
      "type": "error",
      "name": "ReentrancyGuardReentrantCall",
      "inputs": []
    },
    {
      "type": "error",
      "name": "UnsupportedPaymentToken",
      "inputs": [
        {
          "name": "paymentToken",
          "type": "address",
          "internalType": "address"
        }
      ]
    }
  ],
  "bytecode": {
    "object": "0x60a034607257601f610b2d38819003918201601f19168301916001600160401b03831184841017607657808492602094604052833981010312607257516001600160a01b0381169081900360725760015f55608052604051610aa2908161008b823960805181818160fe01526106800152f35b5f80fd5b634e487b7160e01b5f52604160045260245ffdfe6080806040526004361015610012575f80fd5b5f905f3560e01c90816301ffc9a7146106ac57508063889816ff14610657578063fa30a323146100b15763ffa1ad741461004a575f80fd5b346100ae57806003193601126100ae57506100aa60405161006c604082610776565b600681527f302e31362e37000000000000000000000000000000000000000000000000000060208201526040519182916020835260208301906107ac565b0390f35b80fd5b5034610486576060366003190112610486576100cb61074a565b6100d3610760565b6044356001600160a01b0381168091036104865760025f541461062f5760025f556001600160a01b037f00000000000000000000000000000000000000000000000000000000000000001690813303610603576040516354f6127f60e01b81527f0fe650f0c7d6c9ad1922806605f62bcc9e334d01001129ba7783e4bb5a4d7fe160048201525f81602481865afa90811561047b575f916105e9575b50805160148103610558575060208151910151906bffffffffffffffffffffffff1982169160148210610533575b505060601c9384156104d45760331936013681116104c057601f1936013681116104c0578111610486576bffffffffffffffffffffffff1990351693604051907f232f71090000000000000000000000000000000000000000000000000000000082526001600160a01b0383169586600484015260601c60248301526020826064816001600160a01b0385169a8b60448301525afa91821561047b575f9261048a575b5061024b9192610954565b604051905f602083015260208252610264604083610776565b843b15610486576102b2915f9160405193849283927f7f23690c00000000000000000000000000000000000000000000000000000000845260048401526040602484015260448301906107ac565b038183885af1801561047b57610466575b50846103785760405191632260147f60e11b835286600484015280602484015281604484015260806064840152600460848401528660a4840152868360c48183885af191821561036d577ff836b1931052c9a73df43822708ed2fd00922c026dc01a8c48356d47878bf9549360409361034b575b505b82519182526020820152a46001815580f35b610366903d808b833e61035e8183610776565b8101906107d0565b505f610337565b6040513d89823e3d90fd5b61040f91866040517f760d9bba0000000000000000000000000000000000000000000000000000000060208201528560248201528260448201528360648201526001608482015260a060a48201528160c482015260c481526103db60e482610776565b60405180958192632260147f60e11b83528460048401528a60248401528460448401526080606484015260848301906107ac565b038183885af191821561036d577ff836b1931052c9a73df43822708ed2fd00922c026dc01a8c48356d47878bf9549360409361044c575b50610339565b61045f903d808b833e61035e8183610776565b505f610446565b6104739196505f90610776565b5f945f6102c3565b6040513d5f823e3d90fd5b5f80fd5b91506020823d6020116104b8575b816104a560209383610776565b810103126104865761024b915191610240565b3d9150610498565b634e487b7160e01b5f52601160045260245ffd5b6040517ff174a88f00000000000000000000000000000000000000000000000000000000815260206004820152601060248201527f4d61726b6574706c6163654775617264000000000000000000000000000000006044820152606490fd5b6bffffffffffffffffffffffff1960149290920360031b82901b161690505f8061019d565b6040516312c8967360e01b815260a06004820152601060a48201527f4d61726b6574706c61636547756172640000000000000000000000000000000060c48201527f0fe650f0c7d6c9ad1922806605f62bcc9e334d01001129ba7783e4bb5a4d7fe1602482015260e06044820152925082916105d89060e48401906107ac565b906064830152601460848301520390fd5b6105fd91503d805f833e61035e8183610776565b5f61016f565b7f8b280634000000000000000000000000000000000000000000000000000000005f523360045260245ffd5b7f3ee5aeb5000000000000000000000000000000000000000000000000000000005f5260045ffd5b346104865760403660031901126104865760206106a461067561074a565b61067d610760565b907f0000000000000000000000000000000000000000000000000000000000000000610865565b604051908152f35b3461048657602036600319011261048657600435907fffffffff00000000000000000000000000000000000000000000000000000000821680920361048657817fcee78b400000000000000000000000000000000000000000000000000000000060209314908115610720575b5015158152f35b7f01ffc9a70000000000000000000000000000000000000000000000000000000091501483610719565b600435906001600160a01b038216820361048657565b602435906001600160a01b038216820361048657565b90601f8019910116810190811067ffffffffffffffff82111761079857604052565b634e487b7160e01b5f52604160045260245ffd5b805180835260209291819084018484015e5f828201840152601f01601f1916010190565b6020818303126104865780519067ffffffffffffffff8211610486570181601f820112156104865780519067ffffffffffffffff82116107985760405192610822601f8401601f191660200185610776565b8284526020838301011161048657815f9260208093018386015e8301015290565b602081519101519060208110610857575090565b5f199060200360031b1b1690565b906108796001600160a01b03935f92610954565b916024604051809581936354f6127f60e01b8352866004840152165afa91821561047b575f92610938575b508151801561093157602081036108c35750506108c090610843565b90565b6109206040519384936312c8967360e01b855260a06004860152600e60a48601527f53656c6c657250726f636565647300000000000000000000000000000000000060c4860152602485015260e0604485015260e48401906107ac565b906064830152602060848301520390fd5b5050505f90565b61094d9192503d805f833e61035e8183610776565b905f6108a4565b7fffffffff000000000000000000000000000000000000000000000000000000006109816108c0936109e4565b1690604051917f95bd83f8c9560000000000000000000000000000000000000000000000000000602084015260268301525f602a8301526bffffffffffffffffffffffff199060601b16602c820152602081526109df604082610776565b610843565b6001600160a01b031680610a1757507f1f5798d0cb09aa7cea42dc55969fe4e684f49ca0203f5c57332baa2d8734d13490565b62cafe018103610a4657507fd6aca1be9729c13d677335161321649cccae6a591554772516700f986f942eaa90565b9062cafe028214610a7d57507f23808a32000000000000000000000000000000000000000000000000000000005f5260045260245ffd5b7faaaebeba3810b1e6b70781f14b2d72c1cb89c0b2b320c43bb67ff79f562f5ff4915056",
    "linkReferences": {}
  },
  "methodIdentifiers": {
    "VERSION()": "ffa1ad74",
    "getSellerProceeds(address,address)": "889816ff",
    "supportsInterface(bytes4)": "01ffc9a7",
    "withdrawProceeds(address,address,address)": "fa30a323"
  },
  "id": 9
}